:400000000080002011000000990600009906000008B5044B1A6803F53F5302331A6000F043FB00BFFA46004010B5054C237833B9044B13B10448AFF300800123237010BDFB
:400040006081FF1F000000000C210000084B10B51BB108490848AFF300800848036803B910BD074B002BFBD0BDE81040184700BF000000006481FF1F0C210000C880FF1F78
:400080000000000010B504469A4902F034F8002800F0E8809849204602F02DF8002800F0E3809649204602F026F8002800F0DE809349204602F01FF8002800F0D980914976
:4000C000204602F018F8002800F0D4808E49204602F011F8002800F0CF808C49204602F00AF8002800F0CA808949204602F003F8002800F0C5808749204601F0FCFF002830
:4001000000F0C0808449204601F0F5FF002800F0BB808249204601F0EEFF002800F0B6807F49204601F0E7FF002800F0B1807D49204601F0E0FF002800F0AC807A49204610
:4001400001F0D9FF002800F0A7807849204601F0D2FF002800F0A2807549204601F0CBFF002800F09D807349204601F0C4FF002800F098807049204601F0BDFF002800F056
:4001800093806E49204601F0B6FF002800F08E806B49204601F0AFFF002800F089806949204601F0A8FF002800F084806649204601F0A1FF00287FD06449204601F09BFFE2
:4001C00000287BD06249204601F095FF002877D06049204601F08FFF002873D05E49204601F089FF00286FD05C49204601F083FF00286BD05A49204601F07DFF002867D0EB
:400200005849204601F077FF002863D05649204601F071FF00285FD05449204601F06BFF00285BD05249204601F065FF002857D05049204601F05FFF002853D04E4920464C
:4002400001F059FF00284FD04C49204601F053FF00284BD04A49204601F04DFF002847D1392010BD412010BD422010BD432010BD442010BD452010BD462010BD472010BD7A
:40028000482010BD492010BD4A2010BD4B2010BD4C2010BD4D2010BD4E2010BD4F2010BD502010BD512010BD522010BD532010BD542010BD552010BD562010BD572010BD76
:4002C000582010BD592010BD5A2010BD302010BD312010BD322010BD332010BD342010BD352010BD362010BD372010BD382010BD202010BD10210000142100001C21000053
:4003000024210000EC2100002821000030210000342100003C21000040210000482100004C21000054210000582100005C210000602100006821000070210000742100004D
:40034000A4210000782100007C21000084210000882100009021000098210000A0210000A8210000B0210000B8210000C0210000C8210000D0210000D8210000E0210000E1
:40038000E821000070B504462E2819D1012000F0A1FBFA2000F0E4F9002000F09BFB2C4D2978002000F078FB2E2000F017FB294800F04AFE2B785A1C2A70274AD45470BD3C
:4003C0002D281AD1012000F085FB4FF47A7000F0C7F9002000F07EFB1D4D2978002000F05BFB2D2000F0FAFA1C4800F02DFE2B785A1C2A70184AD45470BD202820D11848A2
:4004000000F022FE124D2B7813480024C454FFF739FE064669784B1C6B70012000F03CFB304600F0DBFA2C7007E0E1B2002000F033FB202000F0D2FA0134092CF5DD70BD3B
:40044000732801D0532802D1064800F0FDFD70BD7C81FF1FEC2100008881FF1FA4210000F0210000F421000008B562B600F006FB0121002000F036FC00F072FC20B100F0DA
:4004800069FC08B100F094FD00F064FC0028F3D000F02AFE0028EFD000F032FEFFF772FFEAE700BFFEE700BFF0B40022174611E050F82760F3B226F0FF0608E001EB4205EA
:4004C00011F812406D78A5550132013BDBB2002BF4D101370B2FEBD9F0BC7047064B1B78DBB203F00701054A11701B09013213704422034B1A707047CF0100496E58004013
:400500007658004008B50A46002101F0ECFD08BD38B506221E4B1A705222A3F580731A701C4B1B78DBB21C4A13704FF4E1621B4B1A8041F25122023B1A80002419250CE08E
:40054000174B1B7803F0010343EA440404F003044FF4F07001F050FD013D0DB1032CEFD115B90320FFF79EFF0E4A4FF4807313800723137000230C490B70482002310870FB
:400580001370053213700222084B1A7038BD00BF004300400F010049A1460040224200402542004004400040064000400140004008B501F08DFD08BD38B572B6264A137863
:4005C00043F00403137000240CE0244D630019194A0011462A44084691882858FFF792FF0134E4B2072CF0D91D494FF09040FFF75BFF1C4A137843F00203137010321378A6
:4006000043F0020313700A2217491848FFF7D0FF082217491748FFF7CBFF082216491748FFF7C6FF082216491648FFF7C1FF164A137843F008031370144C61232370FFF74C
:4006400067FF81232370FFF749FF0E2210491148FFF7AEFF38BD00BFE84600400822000030000048035001406C000048F051004078000048125100408000004822510040AF
:4006800088000048625100402243004000480040A0430040B043004008B501F0EDFC03680C2B00D1FEE7FEE708B5104E104D16E029686B68AC68002204E051F8040B43F8A1
:4006C000040B0432A242F8D1E868002203E0002143F8041B04328242F9D11035013E002EE6D101F0CFFCFFF7BFFEFEE701000000D023000008B5104A104B1A60104A136802
:4007000043F40073136000230AE0032B03D80D4A52F8231000E00C490C4A42F8231001332F2BF2D90A4B1A780A4B1A70074A0A4B1A60FFF741FF08BD0004FA050CED00E0A4
:4007400014ED00E000000000990600000080FF1FBC760040C080FF1F08ED00E001BE704710B5044605E0084B186801F045FCA4F50044B4F5004FF6D8034B586800FB04F0A7
:4007800001F03AFC10BD00BFCC80FF1F08B5034B1B7A00FB03F001F02FFC08BDCC80FF1F70B504460E46074B1D681F2802D90020FFF7D4FF04F01F04103455F8240045F895
:4007C000246070BD08ED00E038B504460D46072902D90020FFF7C2FF1F2C02D90020FFF7BDFF04F01F0000F1604000F564406D01EDB2057038BD00BF134B1B78DBB20360BB
:40080000124A127843EA02230360114A127843EA024303600F4A127843EA026303600E4B1B78DBB243600D4A127843EA022343600B4A127843EA024343600A4A127843EA9A
:4008400002634360704700BF0301004904010049EC460040020100490101004900010049050100490601004910B50B4C237803F09F032370237803F0F00323702378184384
:4008800040F0100020700120FFF780FF237803F0EF03237010BD00BF2051004038B505460E4C237843F020032370237803F0BF0323700020FFF76AFF237803F0F0032370F6
:4008C00023781D4345F0100525700120FFF75EFF237803F0EF03237038BD00BF2051004070B5354B1A7802F08002D2B21A7033490A7802F0F00242F00F020A7001310A7826
:4009000002F0F0020A7001310A7802F0F0020A701A7802F0DF021A701A7842F040021A704FF4CA760020FFF731FF234D2B7843F010032B700120FFF729FF214B1C78E4B236
:400940002B7803F0EF032B700020FFF71FFF04F00804E4B22B7843F010032B700120FFF715FF2B7803F0EF032B7014B90A20FFF70DFF013E0CB1002ED4D10F4A137803F019
:40098000BF031370137803F08003DBB213700232137803F0F00313700132137803F0F00343F00F0313700132137803F0F00343F00F03137070BD00BF205100402251004091
:4009C0002151004010B50446FFF78AFF2009FFF765FF04F00F00FFF761FF10BD08B5FFF7F1FF08BD10B50446FFF77AFF2009FFF73BFF04F00F00FFF737FF10BD08B52820CE
:400A0000FFF7AEFE0320FFF72FFF0520FFF7A8FE0320FFF729FF0F20FFF7A2FE0320FFF723FF0120FFF79CFE0220FFF71DFF0520FFF796FE0620FFF7D5FF0E20FFF7D2FF52
:400A40002C20FFF7CFFF0820FFF7CCFF0120FFF7C9FF0C20FFF7C6FF0320FFF7C3FF0520FFF77EFE08BD00BF08B50C20FFF7BAFF0122014B1A7008BD7E81FF1F08B5054B41
:400A80005B7823B9FFF7BAFF0122024B5A70FFF7EBFF08BD7E81FF1F08B5032819D8DFE800F002070D1381F08000FFF79BFF08BDA1F14000C0B2FFF795FF08BDA1F16C004C
:400AC000C0B2FFF78FFF08BDA1F12C00C0B2FFF789FF08BD044A137803F0FB03800000F0040018431070704760510040F8B501F08BFA0746404A137843F001031370103286
:400B0000137843F00103137001263C4B1E700225943B1D7002F5E2521B32137803F07F0313700020FFF732FE354C237803F0F9032370344A137803F0DF0313702378334360
:400B400023703046FFF722FE2820FFF71FFE2E4B1A7802F07F021A701A7802F0BF021A7023782B4323702846FFF710FE237843F0040323700024254B1C7001331C70384650
:400B800001F046FA07211720FFF71EFE20491720FFF706FE07211820FFF716FE1D491820FFF7FEFD07211520FFF70EFE1A491520FFF7F6FD07212046FFF706FE17492046D2
:400BC000FFF7EEFD07213046FFF7FEFD14493046FFF7E6FD07212846FFF7F6FD11492846FFF7DEFD07210C20FFF7EEFD0E490C20FFF7D6FDF8BD00BFA54300409D60004067
:400C00009443004012600040F85100408460004091160000791400008D160000ED1500001D160000511600009916000008B5214B18700023204A1370204A1370204A137081
:400C4000204A1370204A1370204A1370204A1370204B4FF400021A604FF080721A604FF400121A6001221A6002221A6004221A6011B1012906D00BE0174A137803F0FE03B4
:400C800013700AE0144A137843F00103137004E0114A137843F00103137003220F4B1A708022203B1A70012001F0A6F904220C4B1A7008BD0582FF1F0882FF1F2482FF1F82
:400CC0002782FF1F1C82FF1F2682FF1F2982FF1F0482FF1F00E100E009600040286000401260004038B504460D46064B1B7823B9FFF7FCFE0122034B1A7029462046FFF75A
:400D000095FF38BD8081FF1F00230A4A13700A4A13700A4A13700A4A13700A4A13700A4A13700A4A13700322094B1A708022203B1A7070470882FF1F2482FF1F2782FF1F93
:400D40001C82FF1F2682FF1F2982FF1F0482FF1F28600040014B1878704700BF2782FF1F064B1B7813F0FF0F05D0044B1878C0B200221A7070470020704700BF2482FF1FCB
:400D800000EB40008300024A13445878704700BF2C82FF1F431EDBB2072B0BD8064B00011A18185C00F00F00537843EA0020023880B2704700207047FC5F0040431EDBB23B
:400DC000072B3CD8F0B4074600EB4004A3001C4C2344DB889BB2C3F500739A4208D900EB400293002344DA8892B2C2F5007292B200EB4004A300124C2344DB7843EA1223FD
:400E0000104D04012E192B55D3B2737039B909E0CE5C3D010C4C665501339BB200E000239A42F5D8420002449300054A134400225A705A79D2B20001044B1A54F0BC704779
:400E40002C82FF1FFC5F004078600040FE5F0040431EDBB2072B0BD8420002449300054A134400225A705A79D2B20001024B1A54704700BF2C82FF1FFE5F004070B5D9B105
:400E8000054614460E46C8B1082819D8FFF782FFA04203D22846FFF77DFF0446002305E02901094A525CF25401339BB2A342F7D32846FFF7CDFF04E0002402E0002400E080
:400EC0000024204670BD00BF786000400246002001E0013080B2135C002BFAD1704700BF10B4FF2400230EE0094AD25C02EB42029100084A11448A7AD2B2824201D11C467B
:400F000002230133DBB2012BEED9204610BC7047F481FF1F2C82FF1F10B5204C2079FFF7DFFF237813F0800F0ED06378DBB2212B2FD11B4B07221A80C0EBC000194A1044E8
:400F4000586000F007FB10BD144B5B78DBB2202B02D0222B10D01EE0114A07231380C0EBC00310490B4453600F4A135C43F00103135400F017FB10BD084B9B780B4A22F808
:400F80001030094A135C43F00203135400F0A0F910BD002010BD002010BD00BF006000401082FF1FDC80FF1FEC81FF1F0082FF1F10B500241F4B1C701F4B1C705C700AE021
:400FC0001E4B185DC0B2431EDBB2072B01D8FFF73FFF0134E4B2012CF2D9194B1B7813F0FF0F1AD0154B1B7813F0FF0F17D0154B1B7813F0FF0F14D0114B1B78DBB2082B3D
:4010000011D80E4B1B78DBB2082B0ED80D4B1B78DBB2082B0BD8002010BD012010BD012010BD012010BD012010BD012010BD012010BD00BF8181FF1FEC81FF1FF881FF1F25
:40104000F081FF1FF481FF1F2DE9F8438046234B1B78234AD65CF6B2FFF738FF05460027344606EB460293001E4A13441B899BB29D4209D906EB460293001A4A1344B3F867
:4010800008901FFA89F900E0A9464A4608EB07013046FFF793FEC9EB0505ADB245B906EB460293000F4A13441B899BB2994510D14F44BFB204EB440293000A4A13445B7815
:4010C00013F0FF0FF6D025B9002211463046FFF775FE002DC4D1BDE8F88300BF8181FF1FF081FF1F2C82FF1F08B5034B1B78034AD05CFFF745FE08BD8181FF1FF881FF1FFB
:4011000000B583B0064B1B78064AD05C01220DF10701FFF7B3FE9DF8070003B05DF804FB8181FF1FF881FF1FC37803F0030390F9020000280FDA032B06D002F001030B4820
:40114000C15442F001020EE0C2F380030848C15442F0040207E0032B05D0C2F340030548C15442F002021046704700BFF081FF1FF481FF1FF881FF1F1D4B19781D4A138868
:401180009BB20B449BB2138000220FE01A494B681B78DBB2194883544B6801334B600132D2B20B889BB2013B9BB20B80124B1B889BB20BB1072AE9D90D4B1B78DBB2082B50
:4011C00000D05AB10E490B7883F080030B700F210C4B197002210C4B197004E0022309490B7009490B70094B1A70014B1A7070470482FF1F0682FF1F1082FF1F006000400E
:401200009A82FF1F2582FF1F0882FF1F2882FF1F0222074B1A708022064B1A700F22064B1A700023054A1370054A1370012070470882FF1F9A82FF1F2582FF1F0482FF1FCC
:401240002882FF1F08B5FFF797FF08BD10B4194B197801F00F010239C9B2174A13889BB20B449BB21380002011E0144A5468144B1B5CDBB223705368013353600130C0B24A
:401280000139C9B213889BB2013B9BB213800B4B1B889BB20BB10029E7D10A4B19700A4A137883F0800313700B22084B1A7010BC704700BF296000400682FF1F1082FF1FF1
:4012C000006000402882FF1F9A82FF1F2582FF1F0623064A1370064A13708022054B1A700022054B1A700120704700BF0882FF1F2582FF1F9A82FF1F2882FF1F064B9B68E6
:4013000043B1054B9A6810709A6804490988518000229A60704700BF1082FF1F0682FF1F08B5134B1A78D2B21A701B78DBB213F0800F02D00F4A137008BD0220FFF7DEFF79
:401340000D4B1B7803F06003202B05D0402B06D043B900F093FC06E000F05EFE03E000F037FE00E0002010B90322024B1A7008BD286000402582FF1F0060004008B5094B4E
:401380001978094A13889BB20B449BB213800022064B1A700120FFF7B1FF0322044B1A7008BD00BF0482FF1F0682FF1F0882FF1F2582FF1F08B50B4B1B78DBB2042B06D0FD
:4013C000062B07D0022B0BD1FFF7D8FF08BDFFF73DFF08BD0320FFF791FF0322024B1A7008BD00BF0882FF1F2582FF1F08B50022044B1A700120FFF781FF0322024B1A7072
:4014000008BD00BF0882FF1F2582FF1F08B50B4B1B7813F0FF0F07D0084A137843F0800307490B70002313700022064B1A700120FFF764FF0322044B1A7008BD2682FF1F29
:40144000086000400882FF1F2582FF1F08B5094B1B78DBB2042B06D0062B07D0022B07D1FFF7F0FE08BDFFF7C1FF08BDFFF7CEFF08BD00BF0882FF1F08B5284B1B78DBB2B1
:4014800013F0100F48D013F0800F0CD003F00F03012B16D1FFF744FF214B1B7813F0800F11D1012312E013F0400F03D0FFF7CEFF01230BE013F0200F07D0FFF77BFF012316
:4014C00004E0002302E0002300E0002323B3134B1B7813F0800F1FD1124B1B78124A12781343124A13701278D2B2934214D10C4B1B78DBB2094A127812F0800F07D1084BB1
:401500001B78DBB2054A1370137803F00F03044A1278D2B29342EAD108BD00BF286000402582FF1F9A82FF1F2882FF1F296000400022064B1A80064B9B682BB1044A9168DD
:4015400000230B7092685380704700BF0682FF1F1082FF1F08B50F4B1B889BB213B9FFF757FE15E002220C4B1A7000220B4B1A70FFF7DEFF0A4AD179937943EA0123054AFD
:40158000128892B2934201D2024A1380FFF7F4FD012008BD1082FF1F0882FF1F9A82FF1F0060004008B504220B4B1A7080220B4B1A70FFF7BDFF0A4AD179937943EA0123D5
:4015C000084A128892B2934201D2064A13800B22054B1A70012008BD0882FF1F9A82FF1F006000401082FF1F2582FF1F0122094B1A700F3B9B7C084B1B7B03F00303934233
:4016000004D0054AD37B83F08003D3730122024B5A7370470B6000402C82FF1F02220A4B1A700F3B93F82230084B1B7E03F00303012B04D0054AD37E83F08003D376012281
:40164000024B5A76704700BF0B6000402C82FF1F04220C4B1A700F3B93F832300A4B93F8243003F00303012B06D0074A92F8273083F0800382F827300122034B83F82520C9
:40168000704700BF0B6000402C82FF1F704700BF08B5FFF739FB08BD08B500F0A5FC08BD70B588B0054603AC174E0FCE0FC43368237035B322232B7003236B7001A8FFF706
:4016C0009BF8002402231AE008AA224412F81C2C08A901EB121111F8141CE954581C00212954981C02F00F0208AE324412F8142C2A54DA1CA9540134E4B20433DBB2212BE9
:40170000E2D908B070BD00BF3822000010B401233EE019461A010C242148845403EB4300820020480244527912F0FF0F13D003EB430082001B480244127912F0800F04D094
:401740001801194A024494700AE01801164A02440820907004E01801134A0244802090704800084482000F480244D488E4B208010B4901448C71D088C0F30720C871D0888B
:40178000C0B20871D288C2F307224A710133DBB2082BBED9FF22054B1A7010BC704700BF706000402C82FF1FFC5F00400A600040074B1A78074B03EBC2035B681A7C82425C
:4017C00004D9C0001030184440687047002070470582FF1F4C220000F8B5404B1B7813F0FF0F79D03D4B18780138C0B2FFF7E0FF047AC2683A4B1878C0B200236AE0117885
:40180000884264D13749095CC9B25578A9425ED1917801F07F01D67806F00306DFF8C8E04D000D44AF000EEB07054FF0000C85F803C092F802C085F804C092F803C00EF85F
:4018400007C097882F8192F90250002D0DDA012E01D1072700E00D274E000E44B500224E35446F7101266E700CE0012E01D1052700E009274E000E44B5001B4E35446F713B
:4018800000266E70DFF868E00F010EEB07060125B57001FA05F529448D00134929440D89C5F307250EF807500D89EDB27570CE88F6B20E4D3D44AE71CE88C6F30726EE7167
:4018C000CE88F6B22E71C988C1F30721697108320133DBB2A34292D3F8BD00BF2782FF1F1C82FF1F9882FF1F2C82FF1F70600040FC5F0040034B1A78034B03EBC2035868B8
:40190000704700BF0582FF1F4C22000008B5084B18780138C0B2FFF74BFF30B142681279023200EBC203586808BD002008BD00BF2782FF1F2DE9F047002310E0724D590031
:40194000CA189600AC190022AA55A270E2702281A272627034462C4462710133DBB2082BECD940B90AE000226849CA546849CA540133DBB200E00023012BF4D9654B1B7803
:4019800013F0FF0F00F0BD80624B18780138C0B2FFF70EFF80464368DB7913F0400F05D05D4A137843F00103137004E05A4A137803F0FE03137098F808704FF0000A012624
:4019C0006FE0D8F80C50002467E0AB7803F07F039E425FD1314606EB460083004A4803441B899BB2A888834206D206EB460E4FEA8E03454A134418812B784448C35CDBB228
:401A00006878834246D195F802C0DFF8FCE04B000B4498000EEB000383F804C0EB780EF80030EB7803F0030395F90200002813DA012B02D14FF0070901E04FF00D09DFF886
:401A4000C8E04B0003EB010C4FEA8C00704480F805900121417012E0012B02D14FF0050901E04FF00909DFF8A0E04B0003EB010C4FEA8C00704480F8059000214170AB7996
:401A80000A2B01D0022B05D1524631462846FFF74BFB824608350134E4B2BC4295D30136F6B2082E8DD9D8F80C0000220CE0837803F07F0310F8084B03EB43039900124BD4
:401AC00019448C720132D2B2BA42F0D3FFF71EFF124B1860002301210FE00B4D4A00501884002C44E380228992B213449BB203F0010213449BB20131C9B20829EDD9FFF7D1
:401B000005FEBDE8F08700BF2C82FF1F9882FF1F0C82FF1F2782FF1F2982FF1F2082FF1F08B5154B1B7903F07F035A1ED2B2072A20D8590019448A0010490A44917841F05B
:401B4000010191700021D170517841F002015170127912F0800F05D01B01094A1A448D23937004E01B01064A1A4489239370FFF7AFFB08BD002008BD006000402C82FF1FBE
:401B8000FC5F0040274B1B7903F07F035A1ED2B2072A44D810B5590019448A0022490A44917801F0FE0191700021D1701F4C1801215C01F07F012154517801F0FD0151704C
:401BC000127912F0800F13D003EB43018A0016490A445278D2B2012A04D1224602440C23937019E01B01114A1A440D23937013E003EB43018A000C490A445278D2B2012A83
:401C000005D11B01094A1A440823937004E01B01064A1A4409239370FFF75AFB10BD0020704700BF006000402C82FF1FFC5F004010B50E4B1C79E4B20D4B18780138C0B265
:401C4000FFF7B6FD43681B799C4201D9022C0AD8084A135DDBB208490B55044B9B78DBB21355012010BD002010BD00BF006000402782FF1F9882FF1F0C82FF1F10B59C4BCC
:401C80001B78DBB200219B4A118013F0800F00F0AD80974A5278D2B20A2A00F27481DFE812F06900720172017201720172010B007201920072019A008D4BDB78DBB2012B02
:401CC00009D1FFF717FE42688A4B5A6012221A80FFF740FC10BD864BDB78DBB2022B13D1834B9878FFF764FD002800F04E814268804B5A605A68D1785A68927842EA0122C6
:401D00001A80FFF727FC10BD794BDB78DBB2032B05D02CE00A7811440133DBB201E000237549734A9278D2B2934203D20A7812F0FF0FEFD16E4B9B7813F0FF0F0BD06C4B60
:401D40009B78DBB26D4A127C934204D16C4C2046FFF7A6FC21460B7813F0FF0F00F017810B78644A13805160FFF7F4FB10BD00F053F910BD13F0030317D0022B40F0098194
:401D80005C490B805A4B1B7903F07F0303EB43039A005C4B1A449278D2B25B4B1A7000225A704B60FFF7D6FB10BD524902230B80564B1A78D2B2544B1A7000225A704B60C7
:401DC000FFF7C8FB10BD4B4B01221A80504A5A60FFF7C0FB10BD474A01231380444B1B794C490B445360FFF7B5FB10BD404A5278013A0A2A00F2CF80DFE812F04C00CD00DD
:401E00009800CD000B00CD00CD00CD001300CD003000374B9B78DBB23F4A1370FFF758FA10BD334B9B7803F0FF041BB1601EC0B2FFF7BEFC04B110B9002C40F0AE80344BFE
:401E40001B78DBB29C4206D0314B1C700120334B1870FFF76FFDFFF73BFA10BDFFF7E8FE002800F09C80224A1379DBB21279D2B22B490A702B4AD25CD2B22649CB5CDBB229
:401E80009A4204D00122254B1A70FFF7A5FCFFF71FFA10BD03F00303012B17D04BB1022B7FD1134B9B7813F0FF0F7CD1FFF76AFE10BD0F4B9B78DBB2012B76D1134A13780E
:401EC00003F0FD031370FFF703FA10BD084B1B79DBB2012B6BD8064B98781B79DBB21249CA5C22EA0002CA54FFF7F2F910BD00BF006000401082FF1FB4220000982300004C
:401F0000A082FF1F2C82FF1F8481FF1F2982FF1F2782FF1F9882FF1F2682FF1F2482FF1F1C82FF1F0C82FF1F9C82FF1F03F00303012B17D04BB1022B3BD1224B9B7813F0B8
:401F4000FF0F38D1FFF7ECFD10BD1E4B9B78DBB2012B32D11C4A137843F002031370FFF7B7F910BD174B1B79DBB2012B27D8154B98781B79DBB21549CA5C22EA0002CA5458
:401F8000FFF7A6F910BD002010BD002010BD002010BD002010BD002010BD002010BD002010BD002010BD002010BD002010BD002010BD002010BD002010BD002010BD0020A9
:401FC00010BD00BF006000402982FF1F9C82FF1F044B1B7813F0800F01D0024B5B780020704700BF00600040024B1878C0F38010704700BF8F4500400230800803D000BF1F
:4020000001380046FCD17047EFF3108072B6704780F31088704700BF08B5144B1B7803F00303012B02D0022B04D00FE00F4B1B79DBB20CE00D4B1B7903F07F0303EB430339
:402040009A000B4B1A44937ADBB200E00023022B07D8084A1268D35C022B04D1FEF75CFF08BD002008BD002008BD00BF006000402C82FF1F2082FF1F014B1868704700BF60
:402080005881FF1F0E4B70B51E460E4C0025E41AA410A54204D056F8253098470135F8E700F084F9084B094C1E46E41AA4100025A54204D056F8253098470135F8E770BDF5
:4020C000B8230000B8230000B8230000C023000010B5431E0A44914204D011F8014B03F8014FF8E710BD03460244934202D003F8011BFAE7704710F8012B11F8013B012A7C
:4021000028BF9A42F7D0D01A70470000000000002E2D00002D2E2E2E000000002D2E2D2E000000002D2E2E002E2E2D2E000000002D2D2E002E2E2E2E000000002E2E0000D0
:402140002E2D2D2D000000002D2E2D002E2D2E2E000000002D2D00002D2E00002D2D2D002E2D2D2E000000002D2D2E2D000000002E2D2E002E2E2E002E2E2D002E2E2E2D71
:40218000000000002E2D2D002D2E2E2D000000002D2E2D2D000000002D2D2E2E000000002D2D2D2D2D0000002E2D2D2D2D0000002E2E2D2D2D0000002E2E2E2D2D000000EC
:4021C0002E2E2E2E2D0000002E2E2E2E2E0000002D2E2E2E2E0000002D2D2E2E2E0000002D2D2D2E2E0000002D2D2D2D2E0000002000000048656C6C6F2066726F6D20502E
:40220000536F43210D0A0000005100401000305100403000C0510040100000000140001000140140000800400140000A004C01400002005001402000303132333435363759
:40224000383941424344454600000000010000005422000001000000982300000000000000000000010000006C220000010000005423000003000000982200000000000061
:402280000000000000000000000000000000000094220000020A000000008103080002000100820240000A000100030240000A0002030000040309042C034300790070003B
:4022C00072006500730073002000530065006D00690063006F006E0064007500630074006F0072001003550053004200550041005200540038034300440043002000430001
:402300006F006D006D0075006E00690063006100740069006F006E00200049006E00740065007200660061006300650026034300440043002000440061007400610020002C
:4023400049006E0074006500720066006100630065000000090243000201018032090400000102020103052400100104240202052406000105240100010705810308000A4F
:4023800009040100020A0000040705820240000007050302400000001201000202000008B40432F20100010280014300F8B500BFF8BC08BC9E4670474D000000F506000054
:4023C000F8B500BFF8BC08BC9E46704729000000E0230000C880FF1F9800000068010000000000000000E02EC05D00001800000000366E0100C2010000000800C201000055
:4024000000080000A120000000000200000000000000000000000000000000000000000000000000000000000000000000000000AA23000000000000000000000000000004
:40244000000000000000000000000000000000000000000000000000000000000000000000000000000000000000000000000000F880FF1F000000000000000000000000C6
:40248000000000000000000000000000000000000000000000000000000000000000000000000000000000000000000000000000000000000000000000000000000000001C
:4024C00000000000000000000000000000000000000000000000000000000000000000000000000000000000000000000000000000000000000000000000000000000000DC
:40250000000000000000000000000000000000000000000000000000000000000000000000000000000000000000000000000000000000000000000000000000000000009B
:40254000000000000000000000000000000000000000000000000000000000000000000000000000000000000000000000000000000000000000000000000000000000005B
:020000040003F7
:0200000480007A
:4000000001450040015200400217014002190140034001400341014003420140034301400447014004480140024C0140015101407E027C40EA02EE0AEA02EE0A3381364072
:40004000CC709F01A640A7809F01A640A7809F01A640A78008080B040F40C20EAE40AF81EA40EE50AC08AF44002A00004000000000000000C0000000000B0B000000000092
:40008000007F7F000000000000040400000000000000000000000000000000000000000000000000000000000000000000000000000000000000000000000000000000003A
:4000C0000000000000000000000000000000000000000000000000000000000000000000000000000000000000000000000000000000000000000000000000000000000000
:4001000000000000000000000000000000000000000000000000000000000000000000000000000000000000000000000000000000000000000000000000000000000000BF
:40014000000000000000000000000000000000000000000000000000000000000000000000000000000000000000000000000000000000000000000000000000000000007F
:40018000000000000000000000000000000000000000000000000000000000000000000000000000000000000000000000000000000000000000000000000000000000003F
:0200000490006A
:0400000000004005B7
:0200000490105A
:04000000BC90ACAF55
:0200000490303A
:02000000FA8480
:0200000490402A
:4000000000000000000000000000000000000000000000000000000000000000000000000000000000000000000000000000000000000000000000000000000000000000C0
:400040000000000000000000000000000000000000000000000000000000000000000000000000000000000000000000000000000000000000000000000000000000000080
:400080000000000000000000000000000000000000000000000000000000000000000000000000000000000000000000000000000000000000000000000000000000000040
:4000C0000000000000000000000000000000000000000000000000000000000000000000000000000000000000000000000000000000000000000000000000000000000000
:0200000490501A
:0C00000000012E12306900012E1F2AEDB5
:00000001FF