:03000000021C627D
:0C1C6200787FE4F6D8FD758167021CA9AC
:101667000A0A5468652043616C63756C61746F7214
:101677000A0A43686F6F7365204F706572617469FA
:101687006F6E3A0A313A204164646974696F6E0A71
:10169700323A205375627472616374696F6E0A33EC
:1016A7003A204D756C7469706C69636174696F6E0B
:1016B7000A343A204469766973696F6E0A353A20AD
:1016C700506F7765720A363A204C6F67617269749A
:1016D700686D0A373A2053696E650A383A20436FB6
:1016E70073696E650A393A2054616E67656E740ACC
:1016F700456E74657220796F75722063686F6963D0
:10170700653A20000A4572726F723A204469766919
:1017170073696F6E206279207A65726F0A000A45D5
:1017270072726F723A204F706572616E64206F72C9
:1017370020626173652063616E6E6F74206265203D
:101747007A65726F206F72206E656761746976655E
:101757000A000A496E76616C69642063686F696381
:10176700650A000A526573756C743A20252E326635
:101777000A000A456E746572206669727374206E7A
:10178700756D6265723A20000A456E746572207342
:1017970065636F6E64206E756D6265723A20000A2C
:1017A700456E74657220746865206E756D6265722A
:1017B7003A20000A496E76616C69642063686F6934
:0C17C70063652E2052657472792E0A00B2
:041E8F000208000045
:0C1E6200758920758DFAD28E759850227B
:061D6C00D2827F017E001F
:101D7200E4F508F509C3E5099FEE6480F8E5086417
:101D820080985019758CFC758A66D28C308DFDC294
:0E1D92008CC28D0509E50970DC050880D82299
:0E1E47008F90C280121D6CC2827F05021D7238
:101E11007589217F147E00121D727F38121E477F43
:101E21000C121E477F06121E477F01121E477F803C
:031E3100021E4747
:0D1E55008F90D280121D6CC2820F021D7290
:101DC7008B4C8A4D894EAB4CAA4DA94E120DF06033
:101DD70013054EE54E7002054D14F9120DF0FF1272
:051DE7001E5580E22200
:081E77008F993099FDC29922F8
:081E7F003098FDC298AF9922D2
:101DEC008B4C8A4D894EAB4CAA4DA94E120DF0600E
:101DFC0013054EE54E7002054D14F9120DF0FF124D
:051E0C001E7780E222B8
:091E6E007BFF7A167967021DEC76
:101D3600E4FDFC121E7FAE07EE640A601BC3ED9441
:101D460009EC6480948050100DED70010C14242B66
:101D5600F8A606121E7780DB742B2DF8E4F6FB7AC4
:061D660000792B021CEEC7
:10131B00EF24CFB4090040030214BF90133475F0CF
:10132B0003A4C58325F0C5837302134F0213650213
:10133B00137B0213910213C20213DC021439021441
:10134B006302148DAF33AE32AD31AC30AB2FAA2E5E
:10135B00A92DA82C1208070214B5AB33AA32A93158
:10136B00A830AF2FAE2EAD2DAC2C1208030214B546
:10137B00AF33AE32AD31AC30AB2FAA2EA92DA82C8A
:10138B001208F80214B5E4FFFEFDFCAB33AA32A938
:10139B0031A830120A9E6016AB33AA32A931A8309D
:1013AB00AF2FAE2EAD2DAC2C120A010214B57BFF64
:1013BB007A17790B0214C585335385325285315117
:1013CB00853050AF2FAE2EAD2DAC2C121908021458
:1013DB00B5E4FFFEFDFCAB2FAA2EA92DA82C120AFB
:1013EB009E60424040E4FFFEFDFCAB33AA32A931C4
:1013FB00A830120A9E602E402CAF33AE32AD31AC0A
:10140B0030121807C004C005C006C007AF2FAE2EA0
:10141B00AD2DAC2C121807D003D002D001D0001286
:10142B000A010214B57BFF7A1779250214C57FF9DF
:10143B007E0F7D497C40AB2FAA2EA92DA82C12081C
:10144B00F8E4FBFA79347843120A018F2F8E2E8D34
:10145B002D8C2C12155780527FF97E0F7D497C40C5
:10146B00AB2FAA2EA92DA82C1208F8E4FBFA79347D
:10147B007843120A018F2F8E2E8D2D8C2C12154135
:10148B0080287FF97E0F7D497C40AB2FAA2EA92D9A
:10149B00A82C1208F8E4FBFA79347843120A018F6E
:1014AB002F8E2E8D2D8C2C1215898F378E368D35D8
:1014BB008C3480097BFF7A177959021DEC754FFF2D
:1014CB0075501775516A8537558536548535538553
:1014DB0034527B007A007938120F087B007A00793E
:0D14EB0038121DEC7B007A007938121DC705
:0114F80022D1
:031B0500121E624B
:101B0800121E6E121E7F8F227F01121E47E522646D
:101B180031601EE52264326018E52264336012E504
:101B2800226434600CE52264356006E52264367070
:011B38003E6E
:101B39007BFF7A177979121DEC121D368F268E25B7
:101B49008D248C237BFF7A17798F121DEC121D3699
:101B59008F2A8E298D288C2785262F85252E852449
:0E1B69002D85232C8F338E328D318C308042AF
:101B7700E5226437600BE52264386005E522B43955
:011B87003627
:101B88007BFF7A1779A6121DEC121D368F268E253B
:101B98008D248C23E4F52AF529F528F5278F2F8E37
:101BA8002E8D2D8C2C852A33852932852831852741
:061BB80030AF2202131BF6
:091BBE007BFF7A1779BA121DECC5
:011BC70022FB
:081E8700121E11121B0580FB65
:10080000020B4CE86480F8E933E83360110460F0CF
:10081000ED33EC337009E8FCE9FDEAFEEBFF22045E
:1008200060DED3EB9FEA9EE99DE8C2E78CF0C2F759
:1008300095F0400CE8CCF8E9CDF9EACEFAEBCFFB25
:10084000120B1785D0F05804700320D5B3E804705C
:10085000075002B2D5020B5692D5EC0460F7E4CCF7
:10086000C0E0C398F8603B94186008400DD0E0FBEE
:10087000020B2EE4FBFAC9FC8028E830E406E4C948
:10088000FBE4CAFCE830E305E4C9CACBFCE8540742
:100890006010F8C3E913F9EA13FAEB13FBEC13FC4D
:1008A000D8F130F52FC3E49CFCEF9BFFEE9AFEEDF0
:1008B00099FDD0E0FBEF4E4D4C701222DB03020B92
:1008C00053EC2CFCEF33FFEE33FEED33FDED30E760
:1008D000EB020B2EEF2BFFEE3AFEED39FDD0E0FBE5
:1008E00050130BBB0003020B56ED13FDEE13FEEF8E
:0808F00013FFEC13FC020B2EB8
:1008F800EC4D6011E8497017ED33EC3304600DE4FA
:10090800FCFFFEFD22E933E8330470F8020B4C12B9
:100918000B1758046009E4CC2481500628500902BA
:100928000B56284003020B53C0E0EB4A7044B980D1
:1009380006D0E0FB020B42EF4E701CBD8008EBFFB7
:10094800EAFEE9FD80EBE98DF0A4FEE5F00209E19D
:10095800E9CDF9EAFEEBFFEF89F0A4FCE5F0CE89DA
:10096800F0A42EFFE435F0CD89F0A42DFEE435F097
:100978008067EF4E7005BD80D780C3EF8BF0A4ACC5
:10098800F0EE8BF0A42CFCE435F0F8EF8AF0A42C00
:10099800E5F038FCE433CB8DF0A42CFCE5F03BF813
:1009A800EE8AF0A42CFCE5F038F8E433CF89F0A403
:1009B8002CFCE5F038CF3400CE89F0A42FFFE5F009
:1009C8003EFEE433C98DF0A42EFEE5F039CD8AF061
:1009D800A42FFFE5F03EFEE43DFD33D0E0FB5007D9
:1009E8000BBB000F020B56EC2CFCEF33FFEE33FE73
:0609F800ED33FD020B2EA1
:1009FE00020B56EC5D046005E859047003020B4CC3
:100A0E00120B17580460F6EC4860F2EC7004FDFE11
:100A1E00FF22C860DB2481C85009C39860025006CB
:100A2E00020B539850CAF582E9294B4A7005AB82E6
:100A3E00020B4275F0007C1A7880C3EF9BEE9AEDA4
:100A4E0099400DC3EF9BFFEE9AFEED99FDE842F043
:100A5E00DC23ACF0D0E0FFD0E0FED0E0FDAB822096
:100A6E00E7101BEB60BAEC2CFCEF33FFEE33FEED20
:100A7E0033FD020B2EE803F830E705C0F075F000E9
:100A8E00EF2FFFEE33FEED33FD40B830E7C280AA04
:100A9E0074F8CC6480CCC86480C8F58204604FC3FF
:100AAE00EB9FF5F0EA9E42F0E99D42F0E89C45F09E
:100ABE00603C501DE5825FFFE582D313CB5BCBF428
:100ACE002B5582FB50280ABA002409B90020088051
:100ADE001DE5825BFBE582D313CF5FCFF4C3132FEB
:100AEE005582FF50090EBE00050DBD00010CC3EB73
:100AFE009FF5F0EA9E42F0E99D42F0E89C45F060D9
:090B0E0007CC4820E701B3EC22FA
:100EAC00E563244FF8E6056322784C300702784F4F
:100EBC00E475F001120E76020DF02000EB7F2ED2BD
:100ECC00008018EF540F2490D43440D4FF30040B1E
:100EDC00EF24BFB41A0050032461FFE564600215CF
:100EEC00640567E5677002056630070D784CE4759C
:100EFC00F001120E76EF020E36021DA07403D2071B
:100F0C008003E4C207F5638B4C8A4D894EE4F5648B
:100F1C00F566F567E56460077F20120EE780F575CE
:100F2C0065FFC201C200C202C203C205C206C208EA
:100F3C00120EB5FF700D3007057F00120EF8AF676B
:100F4C00AE6622B4255FC2D5C204120EB5FF24D002
:100F5C00B40A00501A75F00A786430D50508B6FF4B
:100F6C000106C6A426F620D5047002D20380D9242B
:100F7C00CFB41A00EF5004C2E5D2040211E5D2013D
:100F8C0080C6D20080C0D20280BCD2D580BAD20535
:100F9C0080B47F20120EE72002077401B564004074
:100FAC00F1120EACFF120EE7020F20D208D206800F
:100FBC0095120EACFB120EACFA120EACF94A4B7039
:100FCC000679DC7A127BFF20022EE564602A7E0013
:100FDC008E82758300120E0960060EEE656570F048
:100FEC00C2D5EBC0E0EAC0E0E9C0E0EE121245D099
:100FFC00E0F9D0E0FAD0E0FB120DF0FF60AAEBC0F4
:10100C00E0EAC0E0E9C0E0120EE7D0E02401F9D03C
:10101C00E03400FAD0E0FBE5650460DCD565D980EE
:10102C0087D20280A212122860F7E56570010412C3
:10103C000C01A965600DE565600914F5651212CF08
:10104C00EF60F3EA30E702F404C3995077EAF42531
:10105C00650430E701E404F565800D12122860C1C7
:10106C00EA05652565120C01EA7862F630E701E4C1
:10107C00256504D5650420050114121245E4C0E071
:10108C001212CF7862E6601320E70714F6120ECF27
:10109C00802204F6D0E014C0E07F00120ECFE5658C
:1010AC006007120EC61565800B300503120EC6D0F4
:1010BC00E0020F20D0E00480C512122860A0E56584
:1010CC0004120C017862EAF6E56520050260010461
:0510DC0024041212457E
:1010E10074FF04C0E01212CF120ECFE56520050295
:1010F1006003120EC6D0E0B565E87F45120ED978BF
:1011010062E67F2B30E7047F2DF404C0E0120EE786
:10111100D0E075F00A84C0F0120ED0D0E0120ED0EB
:10112100020F20791080027908C206C2088008D215
:10113100D5790A8004790AC2D5E565047002F5659E
:10114100E4FAFDFEFF120EACFC7B08200113120E27
:10115100ACFD7B1030000A120EACFE120EACFF7B10
:1011610020EC3382D592D55013C3E43000069FFFA3
:10117100E49EFEE42001039DFDE49CFCE4CBF8C267
:1011810001EC700CCFCECDCCE824F8F870F38017C9
:10119100C3EF33FFEE33FEED33FDEC33FCEB33FBFA
:1011A100994002FB0FD8E9EB300105F8D0E0C448C3
:1011B100B201C0E00AEC4D4E4F78207B0070C2EACC
:1011C100B5650040BCC0E0121247D0F0D0E020016C
:1011D10004C4C0E0C4B201C0F0120ED0D0F0D5F00A
:1011E100EB020F20120E860FBD531124580F8E4CA7
:1011F1000F8A4211284F1130441130490FA3431176
:10120100365510674610C54510314712FC500F92F4
:101211002D0F962E0FB92B0F9A230FB72012E52A07
:101221000F524800000FB1E565B4FF037565061262
:101231000EACFC120EACFD120EACFE120EACFF7821
:101241005B020C30790AA2D5200314300509B910CC
:10125100020404B9080104A2D520060250010420A9
:1012610002689202B564005034C0E07F2030031957
:101271007F30A20272067205500F12129EC202C284
:1012810006C205C2087F30800F300503E9C0E012B5
:101291000EE7300503D0E0F9D0E0B564CC30051796
:1012A1007F30B9100C120EE77F583004077F788029
:1012B10003B90803120EE73002057F2D020EE77F06
:1012C100202008F87F2B2006F322920280CF7F0096
:1012D100B407005005245BF8E6FF22286E756C6C9C
:1012E1002900D201120EAC3001F8C201786430D568
:1012F1000108F6020F522D50434958120EAC240337
:10130100B405004001E49012F793120ED8743A121A
:0A1311000ED8D20375640402112403
:101CEE00D2008B358A368937121D2AC0E0FF121EAC
:101CFE0034D0E040F3121A32400122ECC0E0EDC0C5
:101D0E00E0EEC0E0EFC0E0121D2AD0F0AFF0D0F050
:101D1E00AEF0D0F0ADF0D0F0ACF080D9E475F001BB
:081D2E007835120E76020DF06B
:1017D3003E9248DA3ECCCCCD3F2AAAAB4000000073
:1017E3003F8000003F9837F03FB504F33FD744FCF8
:1017F3003E3172173EB172173F0515913EDE5BD93C
:10180300D2008002C200EDD2E7F8CD33EC3304708E
:101813000BBD800592D5020B56020B4C40FBD31433
:1018230060F2F5F07C3FEE7A00C39496C8948B4047
:10183300230AC89469C8941A401A0AC89468C894B9
:101843001F40110AC8945AC89425400805F07A002D
:10185300CDC2E7CDC0F08C568D578E588F59EA23F1
:1018630023C0E024E3F582E43417F583120E6612F5
:101873000807ECC0E0EDC0E0EEC0E0EFC0E0120E00
:1018830056A856A957AA58AB59120803D0E0FBD063
:10189300E0FAD0E0F9D0E0B2E7F8120A018C568DF5
:1018A300578E588F599017D37403120D33A856A926
:1018B30057AA58AB591208F8D0E0600F24EFF5820D
:1018C300E43417F583120E661208078C568D578E73
:1018D300588F59D0E0C3947FFDE49400FC120B9120
:1018E3007B187A727931783F1208F8A856A957AA5B
:1018F30058AB5912080730000B7BD97A5B79DE7835
:051903003E1208F8226D
:1014F9003A70FA83BCAAE9E43E81E0F8BF9DE9E6C7
:101509003F80000039283C1ABB9969663DA335E341
:10151900BF255DE73FC90FDB418DDBCCC44936EE02
:1015290045C9913FC5B0F83D3F800000C317F53468
:10153900452FFA73C60AFDDD1215E804A2E19200EF
:101549001420E0159014F97404120D338026121535
:10155900E830E102B20020E0EB8C4C8D4D8E4E8FCD
:101569004F90150D7404120D33A84CA94DAA4EAB1A
:101579004F1208F8ED4C6007300004EC6480FC223F
:101589001215E8C0E08C4C8D4D8E4E8F4F90153161
:101599007403120D33A84CA94DAA4EAB4F1208F88B
:1015A900ECC54CFCEDC54DFDEEC54EFEEFC54FFF3C
:1015B9009015217403120D33D082A84CA94DAA4E5F
:1015C900AB4FE58230E007120A01B20080A6EFCBEB
:1015D900FFEECAFEEDC9FDECC8FC120A018095EDCB
:1015E90033EC547FCC33920024605007D0E0D0E034
:1015F900020B4C7B837AF97922783E1208F8EDF9CF
:1016090033ECF83324815011EFFBEEFA120BCA12B6
:101619000B8CECB2E7FC120807ED33EC33602F2496
:1016290003F8C313FCED92E7FDE82481E4501FECB5
:10163900F8EDF9EEFAEFFB120BCAEF04C2E0FCF584
:1016490082120B96ECB2E7FC120807E58203FAED69
:0E16590033EC3360071413FCED92E7FDEA2238
:101908008F4F8E4E8D4D8C4CE4FFFE7D807C3FAB1F
:101918004FAA4EA94DA84C120A9E7009AF4FAE4E61
:10192800AD4DAC4C22AF4FAE4EAD4DAC4C120B6131
:10193800FBAF53AE52AD51AC50120B61FFBF010863
:10194800E4FFFE7D807C3F22EF64046022EB6404A8
:10195800601DBB0127E4FFFEFDFCAB53AA52A95151
:10196800A850120A9E60084006E4FFFEFDFC22749F
:10197800FFF553F552F551F550021A16E4F554F5F2
:1019880055FFFEFDFCAB4FAA4EA94DA84C120A9E6E
:10199800504BAF53AE52AD51AC50120BCA8E548F50
:1019A80055AC54AD55EC120B91C8ECC8C9EDC9CA79
:1019B800EECACBEFCBAF53AE52AD51AC50120803C9
:1019C800E4FBFAF9F8120A9E70A5AF4FAE4EAD4D82
:1019D800AC4C120B7B8F4F8E4E8D4D8C4CAF4FAE57
:1019E8004EAD4DAC4C121807AB53AA52A951A85092
:1019F8001208F8121C008F538E528D518C50E555E9
:101A080030E00B120B7B8F538E528D518C50AF539D
:071A1800AE52AD51AC5022AB
:100B1700E9D2E7C933E833F892D5EDD2E7CD33EC24
:070B270033FC5002B2D5229D
:100B2E00EC30E7100FBF000C0EBE00080DBD000428
:100B3E000BEB6014A2D5EB13FCED92E7FD2274FFD4
:100B4E00FCFDFEFF22E480F8A2D574FF13FC7D802D
:030B5E00E480EF41
:100B6100ED33EC33601004700FED547F70057402A7
:0A0B710092E0227404220422E42220
:100B7B00ED33EC33600A047003BD8004ECB2E7FC88
:010B8B002247
:100B8C0075F020800E75F010800575F0087D007EE4
:100B9C00007F003392D530D503120E48EC33401051
:100BAC00EF33FFEE33FEED33FDEC33FCD5F0ED22ED
:0E0BBC00E5F0247EA2D513CC92E7CDCEFF2229
:100BCA00EDD2E7CD33EC3392D524814006E4FFFE23
:100BDA00FDFC22FCE4CFCECDCC24E0501174FF8082
:100BEA00EDC3CC13CCCD13CDCE13CECF13CF04701F
:070BFA00F030D5DE020E48C9
:100C0100F920E72824F950037907E4F42402FB18BA
:100C1100DBFDE624FB5014E9600DE4F618E604F66A
:0F0C2100B40A08E4F6D9F57401F60A22C2D52206
:100C3000ED33EC3392D5FA602AB4FF33EDC2E77B93
:100C4000FF60067A0C7955E4227A0C795E20D5048F
:100C50007A0C7959224E614E002B494E46002D499F
:100C60004E4600E47A08F608DAFC7B00740722E8B6
:100C7000C0E0ECC0E0EDC0E0EEC0E0EFC0E0EA753F
:100C8000F010A4CAABF075F04DA42BFBE435F0FCDA
:100C9000EA2410FAEB34C5FBEC34D9FCEDC2E7FFD3
:100CA00075F056A4F42411C5F0F434C58FF0A42ACD
:100CB000E5F03BE43CF620E714120DB0D0E0FFD0A5
:100CC000E0FED0E0FDD0E0FC120A018014F4041232
:100CD0000DB0D0E0FFD0E0FED0E0FDD0E0FC120887
:100CE000F8D0E0F8E6FAEDD2E7CD33EC332482FB1E
:100CF000E4C3CF33CFCE33CECD33CD33DBF37B075D
:100D000075F00A846004F6081B0AE5F0F6088FF017
:100D1000740AA4FFACF08EF0740AA42CFEACF05060
:100D2000010C8DF0740AA42CFDE435F0F608DBDE2E
:030D300074072223
:101A1F00C201C202C203C204F9E4F538F539FCFD74
:101A2F00FEFFE91000EA20030CB42D04D203D322E9
:101A3F00B42B02D32224D0504794095041240A30AA
:101A4F000415F88539F0740AA42872E74051C5F0DF
:101A5F00704D85F039D322D202C0E0E4FBFA792031
:101A6F0078411208F8ECF8EDF9EEFAEFFBD0E0FC54
:101A7F00E4120B961208073001B41538D322240A4A
:101A8F00200420B4FE0720011AD201D32224EB60D8
:101A9F000424E0700EA2039201D204C203D322C326
:101AAF00020B4CE430040BE539300302F404A201BD
:101ABF0092033002EA253820D2E5A2E792045002C1
:101ACF00F404B4260050D8CCC0E0EDC0E0EEC0E086
:101ADF00EFC0E0EC120DB0D0E0FFD0E0FED0E0FDA3
:101AEF00D0E0FC2004051208F88003120A0130032D
:061AFF0003120B7BC32261
:100D3300C0E0EFFBEEFAEDF9ECF81208F8D0E0F5BD
:100D4300F0EFFBEEFAEDF9ECF8120E56A3A3A3A312
:100D5300E8C0E0E9C0E0EAC0E0EBC0E0C0F01208A0
:100D6300F8120E66A3A3A3A3120807D0F0D0E0FBEA
:0D0D7300D0E0FAD0E0F9D0E0F8D5F0D422BD
:101BC80033DA929E35B16011377FE5FE3921848979
:101BD8003AAEC3FF3C1D955B3D6358473E75FDF02B
:101BE8003F3172183F800000C2D5020B56020B4CE1
:101BF800BD80FA50F3020B53ED33EC330460F17BF4
:101C08003B7AAA79B8783F1208F8ED33EC3392D5CD
:101C1800247B5011A2D570DB500BED448024045076
:101C280004A2D580CEEFFBEEFAEDF9ECF8120BCA60
:101C3800EFF582F404FC120B96120807C082901B81
:101C4800C87409120D42ED33CC33D0F092D525F08B
:0A1C5800A2D57001C313CC13FD22C6
:100D80003F8000004120000042C80000447A00007B
:100D9000461C400047C35000497424004B189680FD
:100DA0004CBEBC205A0E1BCA6753C21C749DC5AEF4
:100DB000FB60065407601C2323120DDEEB543860E1
:100DC00009120DCA120DD91208F8ECF8EDF9EEFA75
:100DD000EFCB22EB120DD980F1543803241C900D77
:100DE00080FE93FC0EEE93FD0EEE930ECE93FF224B
:101C6E00021E87E493A3F8E493A34003F68001F2E7
:101C7E0008DFF48029E493A3F85407240CC8C33377
:101C8E00C4540F4420C8834004F456800146F6DF46
:101C9E00E4800B0102040810204080901E8FE47E29
:101CAE00019360BCA3FF543F30E509541FFEE4933B
:101CBE00A360010ECF54C025E060A840B8E493A302
:101CCE00FAE493A3F8E493A3C8C582C8CAC583CA2D
:101CDE00F0A3C8C582C8CAC583CADFE9DEE780BEE5
:011E9300004E
:100DF000BB010689828A83E0225002E722BBFE0201
:090E0000E32289828A83E4932233
:100E0900BB010CE58229F582E5833AF583E022509E
:100E190006E92582F8E622BBFE06E92582F8E222E8
:0D0E2900E58229F582E5833AF583E4932202
:100E3600BB010689828A83F0225002F722BBFE019B
:020E4600F32295
:0E0E4800C3E49FFFE49EFEE49DFDE49CFC22BB
:100E5600E493FC740193FD740293FE740393FF22E2
:100E6600E493F8740193F9740293FA740393FB22E2
:100E7600FAE6FB0808E6F925F0F618E6CA3AF6227D
:100E8600D083D082F8E4937012740193700DA3A3FB
:100E960093F8740193F5828883E47374029368600F
:060EA600EFA3A3A380DF0F
:101DA000EFB40A07740D121DAB740A309811A8998C
:101DB000B8130CC2983098FDA899C298B811F630A3
:071DC00099FDC299F599227B
:101E3400EFC394094005EF940E4003BF2003D38001
:031E440001C322B5
:00000001FF
