:03000000020800F3
:0C080000787FE4F6D8FD75810D020847F2
:1009090041004949495447004200323130313231BE
:100919003400430030392F31302F32303032004922
:100929006E636F7272656374206F7074696F6E2184
:0209390021009B
:040A4600020C00009E
:10093B00E4F50CF50DC3E50D9FEE6480F8E50C6452
:10094B0080985019758CFC758A18D28C308DFDC22D
:0E095B008CC28D050DE50D70DC050C80D822D8
:100A05008F90C280D2827F017E0012093BC2827F15
:040A15000502093B92
:100A19008F90D280D2827F027E0012093BC2827FF0
:040A29000502093B7E
:100969008B098A0A890BAB09AA0AA90B1209D66055
:1009790013050BE50B7002050A14F91209D6FF12CB
:050989000A1980E222C2
:1009B3007589217F147E0012093B7F38120A057F57
:1009C3000C120A057F06120A057F01120A057F80B1
:0309D300020A0510
:090A2D00758DFAD28E75985022E5
:080A36008F993099FDC299224D
:10098E008B098A0A890BAB09AA0AA90B1209D66030
:10099E0013050BE50B7002050A14F91209D6FF12A6
:0509AE000A3680E22280
:070A3E003098FDC298AF994A
:010A4500228E
:1009EF00AD07AC06ED1DAE0470011C4E60077F1CF9
:0609FF00120A0580EF2240
:10088C001209B3120A2D120A3E8F087F057E001240
:10089C00093BE508B441167BFF7A09790912098EE8
:1008AC007F01120A057BFF7A09790B8034E508B4C5
:1008BC0042167BFF7A09791112098E7F01120A0503
:1008CC007BFF7A0979138019E508B443207BFF7A02
:1008DC0009791B12098E7F01120A057BFF7A0979AF
:1008EC001D1209697F047E001209EF80967BFF7A46
:0D08FC0009792812098E7F01120A058086F5
:10080C0002088CE493A3F8E493A34003F68001F26E
:10081C0008DFF48029E493A3F85407240CC8C333ED
:10082C00C4540F4420C8834004F456800146F6DFBC
:10083C00E4800B0102040810204080900A46E47EFC
:10084C00019360BCA3FF543F30E509541FFEE493B1
:10085C00A360010ECF54C025E060A840B8E493A378
:10086C00FAE493A3F8E493A3C8C582C8CAC583CAA3
:10087C00F0A3C8C582C8CAC583CADFE9DEE780BE5B
:010A4A0000AB
:1009D600BB010689828A83E0225002E722BBFE021F
:0909E600E32289828A83E4932252
:00000001FF
