:10000000022CEC008F828E83E0540100000070F817
:100010002278FFE4F6D8FD022D4A900082E4F090A9
:100020006000E0FF900085EFF07B007A007900909F
:100030000086120C7C900110E4F0A3E4F09000859F
:10004000E0FFEF5480FF7E00EF64804E6003020209
:10005000F5906001E0FFEF120CB1021D00006A068E
:1000600002A90802C90A00000514906003E0FFEF2E
:10007000B401351242CD90008BEEF0A3EFF090006A
:100080008BE0FEA3E0FF8F828E83A3120C8590018C
:1000900012120C7C900110E4F0A37412F012383F9D
:1000A000900082EFF0020514906003E0FFEF64021D
:1000B000707A906002E0FF12339590008BEEF0A30F
:1000C000EFF090008BE0FEA3E0FFEF4E700302051F
:1000D0001490008BE0FEA3E0FF8F828E83A3120CAE
:1000E00085900112120C7C900112120C73E924030A
:1000F000F9EA3400FA120A10FF7E00EF7F00FE904A
:100100000112120C73E92402F9EA3400FA120A10FF
:10011000FD7C00EE4CFEEF4DFF900110EEF0A3EFE2
:10012000F012383F900082EFF0020514906003E077
:10013000FFEF64036003020212900089E4F07BFF8A
:100140007A4479D3900086120C7C900089E0FF906D
:100150006002E0FEEED39F403D900086120C7312C9
:100160000A10FFEF6030900086120C73120A10FF25
:1001700090008AEFF0900086120C7390008AE0FFE6
:100180007E00E92FF9EA3EFA900086120C7C90007E
:1001900089E004F080B4906002E0FFEFB4EE0C7BE5
:1001A000FF7A4579E5900086120C7C906002E0FFB2
:1001B000EF602490448EE493FF906002E0FEEEB581
:1001C00007157B017A0179911225C17B017A0179AA
:1001D00091900086120C7C900086120C73120A100B
:1001E000FFEF7003020514900086120C73120A10C0
:1001F000FF7E00900110EEF0A3EFF0900086120C4D
:1002000073900112120C7C12383F900082EFF002C2
:100210000514123430900082EFF00205149000852E
:10022000E0FFEF5403FFEF120CB10277000234023B
:1002300000000514900110E4F0A37402F090600433
:10024000E0FFEF547FFFEF75F00BA424ADF582E4DF
:100250003400F583E0FF9001EAEFF09001EBE4F069
:100260007B017A0179EA900112120C7C12383F90DE
:100270000082EFF0020514900110E4F0A37402F084
:100280009000A5E0FF9001EAEFF09001EBE4F07B35
:10029000017A0179EA900112120C7C12383F900029
:1002A00082EFF0020514020514900110E4F0A3742B
:1002B00001F07B017A0079A6900112120C7C1238B1
:1002C0003F900082EFF0020514900110E4F0A37457
:1002D00001F0906004E0FF740E2FF9E43401FA7B22
:1002E00001900112120C7C12383F900082EFF00254
:1002F0000514020514906001E0FFEF120CB103F544
:1003000001048D03031105032609039E0B0000055C
:1003100014906002E0FF90011FEFF01242E890009D
:1003200082EFF0020514906002E0FF900084EFF08D
:10033000900084E0FFEFD394004013900084E0FF2E
:10034000EF14FF12339590008BEEF0A3EFF09000C6
:1003500084E0FFEFD39400400C90008BE0FEA3E01C
:10036000FFEF4E700B900084E0FFEF600302051476
:100370009000A6E0FF900084E0FEEE6F6015900014
:1003800084E0FF9000A6EFF090011C7401F07F0163
:1003900012051A1242E8900082EFF00205141232A0
:1003A00055EF7003020514906004E0FF900083EFA6
:1003B000F0906004E0FF900118EFF0900083E0FF00
:1003C000740E2FF582E43401F583E0FF900083E0A2
:1003D000FE741D2EF582E43401F583E0FEEE6F60BD
:1003E0000990011C7401F01211231242E89000825E
:1003F000EFF0020514900085E0FFEF5403FFEF12C9
:100400000CB1042500044B01040F020000051490F8
:100410006002E0FFEF600302051412235E90008289
:10042000EFF0020514906002E0FFEF640160030248
:1004300005149000A5E0FFEF54FDFF9000A5EFF03C
:100440001242E8900082EFF0020514906004E0FF91
:10045000EFC394024003020514906004E0FF74208F
:100460002FF582E43401F583C083C082E0FF906001
:1004700002E0FEEEF4FEEF5EFFD082D083EFF012DA
:1004800042E8900082EFF002051402051490008506
:10049000E0FFEF5403FFEF120CB104B90004DB01DD
:1004A00004A70200000514906002E0FFEF706512DF
:1004B0002EB4900082EFF0805B906002E0FFEF646A
:1004C0000170519000A5E0FFEF4402FF9000A5EFFE
:1004D000F01242E8900082EFF08039906004E0FF73
:1004E000EFC39402502E906004E0FF74202FF58239
:1004F000E43401F583C083C082E0FF906002E0FE37
:10050000EEF4FEEF5EFFD082D083EFF01242E8906F
:100510000082EFF0900082E0FF2290008DEFF090DB
:100520000095E4F0A3E4F090008EE4F090008EE0FB
:10053000FFEFC3940940030205D990008EE0FFEF5E
:1005400075F00BA424ABF582E43400F583E4F0905D
:10055000008EE0FFEF75F00BA424ADF582E43400CB
:10056000F583E4F090008EE0FFEF75F00BA424AE6D
:10057000F582E43400F583E4F090008EE0FFEF753F
:10058000F00BA424B3F582E43400F583E4F0A3E493
:10059000F090008EE0FFEF75F00BA424B5F582E437
:1005A0003400F583E4F090008EE0FFEF75F00BA4CB
:1005B00024ACF582E43400F583E4F090008EE0FF93
:1005C000EF75F00BA424B0F582E43400F583E4F079
:1005D00090008EE004F002052C90008DE0FFEF60AB
:1005E0003A900090E4F0900090E0FFEFC394025046
:1005F0002A900090E0FF740E2FF582E43401F58319
:10060000E4F0900090E0FF741D2FF582E43401F5D2
:1006100083E4F0900090E004F080CB9000A6E0FF2F
:10062000EFD394005003020A0F90009BE4F0900077
:10063000A6E0FFEF14FF123395900097EEF0A3EFC2
:10064000F0900097E0FEA3E0FF8F828E83A3120C50
:1006500085900092120C7C900092120C73E9240792
:10066000F9EA3400FA120A10FFEF5440FF7E00EF5F
:100670004E60109000A5E0FFEF4401FF9000A5EF51
:10068000F0800E9000A5E0FFEF54FEFF9000A5EF74
:10069000F0900097E0FEA3E0FFEF2404FFEE3400AB
:1006A000FE900097EEF0A3EFF0900097E0FEA3E03D
:1006B000FF8F828E83E493FF90008EEFF090009086
:1006C0007401F0900090E0FFEFC394094003020929
:1006D0001C900097E0FEA3E0FF8F828E83A3120C94
:1006E00085AE02AF01900099EEF0A3EFF090008F7D
:1006F000E4F090008EE0FF90008FE0FEEEC39F409C
:1007000003020913900099E0FEA3E0FF8F828E831D
:10071000740293FFEF547FFF7E00900090E0FD7C19
:1007200000ED6F7002EC6E60030208F2900099E039
:10073000FEA3E0FF8F828E83740493FE740593FF03
:10074000900090E0FDED75F00BA424B3F582E43445
:1007500000F583E0FCA3E0FDC3ED9FEC9E502C90E0
:100760000099E0FEA3E0FF8F828E83740493FE74F1
:100770000593FF900090E0FDED75F00BA424B3F518
:1007800082E43400F583EEF0A3EFF0900099E0FEF0
:10079000A3E0FF8F828E83E493FF740E2FF582E433
:1007A0003401F583E0FF900099E0FCA3E0FD8D8229
:1007B0008C83740193FEEF6E60030208F29000993F
:1007C000E0FEA3E0FF8F828E83740293FF9000907F
:1007D000E0FEEE75F00BA424AFF582E43400F5835F
:1007E000EFF0900099E0FEA3E0FF8F828E83740308
:1007F00093FF900090E0FEEE75F00BA424ABF58221
:10080000E43400F583EFF0900099E0FEA3E0FF8F61
:10081000828E83740393FFEF5403FF900091EFF0F7
:10082000900099E0FEA3E0FF8F828E83740293FF15
:10083000EF5480FF7E00EF4E603C900091E0FFEFB0
:10084000B401047F0780027F0D900090E0FEEE75FA
:10085000F00BA424B0F582E43400F583EFF09000AF
:1008600090E0FFEF75F00BA424ACF582E43400F5C2
:10087000837401F08039900091E0FFEFB401047FB0
:100880000580027F09900090E0FEEE75F00BA42435
:10089000B0F582E43400F583EFF0900090E0FFEFD4
:1008A00075F00BA424ACF582E43400F583E4F090F9
:1008B0000099E0FEA3E0FF8F828E83740693FFEF22
:1008C000640A6014900099E0FEA3E0FF8F828E839B
:1008D000740693FFEFB4021A900099E0FEA3E0FFC4
:1008E000900090E0FD90009BE0FB122A1390009B8B
:1008F000EFF0900099E0FEA3E0FFEF2407FFEE3455
:1009000000FE900099EEF0A3EFF090008FE004F06D
:100910000206F2900090E004F00206C3900097E017
:10092000FEA3E0FF8F828E83A3120C85AE02AF017F
:10093000900099EEF0A3EFF0900090E4F090008E1C
:10094000E0FF900090E0FEEEC39F5053900099E0CE
:10095000FEA3E0FF8F828E83E493FF900099E0FC7A
:10096000A3E0FD8D828C83740293FEEE547FFEEE35
:1009700075F00BA424B5F582E43400F583EFF09014
:100980000099E0FEA3E0FFEF2407FFEE3400FE90A5
:100990000099EEF0A3EFF0900090E004F0809E123A
:1009A00032F690011AEEF0A3EFF0900095E4F0A378
:1009B000E4F090008E7401F090008EE0FFEFC3949D
:1009C000095049900095E0FEA3E0FF90008EE0FD05
:1009D000ED75F00BA424B1F582E43400F583EEF05C
:1009E000A3EFF090008EE0FFEF75F00BA424B3F5B9
:1009F00082E43400F583E0FEA3E0FF900095EE8FE3
:100A0000F0120A3B90008EE004F080AC1220C62267
:100A1000BB010689828A83E0225002E722BBFE02E4
:100A2000E32289828A83E49322BB010689828A8336
:100A3000F0225002F722BBFE01F322C5F0F8A3E03A
:100A400028F0C5F0F8E582158270021583E038F0D1
:100A500022BB010A89828A83E0F5F0A3E0225006D6
:100A600087F009E71922BBFE07E3F5F009E3192235
:100A700089828A83E493F5F074019322BB010A8989
:100A8000828A83F0E5F0A3F0225006F709A7F01957
:100A900022BBFE06F3E5F009F31922EF2BFFEE3A35
:100AA000FEED39FDEC38FC22E88FF0A4CC8BF0A4ED
:100AB0002CFCE98EF0A42CFC8AF0EDA42CFCEA8E30
:100AC000F0A4CDA8F08BF0A42DCC3825F0FDE98F53
:100AD000F0A42CCD35F0FCEB8EF0A4FEA9F0EB8F4A
:100AE000F0A4CFC5F02ECD39FEE43CFCEAA42DCE17
:100AF00035F0FDE43CFC2275F008758200EF2FFF15
:100B0000EE33FECD33CDCC33CCC58233C5829BEDE5
:100B10009AEC99E58298400CF582EE9BFEED9AFDE9
:100B2000EC99FC0FD5F0D6E4CEFBE4CDFAE4CCF999
:100B3000A88222B800C1B90059BA002DEC8BF0840C
:100B4000CFCECDFCE5F0CBF97818EF2FFFEE33FEDA
:100B5000ED33FDEC33FCEB33FB10D703994004EB92
:100B600099FB0FD8E5E4F9FA227818EF2FFFEE335E
:100B7000FEED33FDEC33FCC933C910D7059BE99A70
:100B80004007EC9BFCE99AF90FD8E0E4C9FAE4CC01
:100B9000FB2275F010EF2FFFEE33FEED33FDCC336B
:100BA000CCC833C810D7079BEC9AE899400AED9B54
:100BB000FDEC9AFCE899F80FD5F0DAE4CDFBE4CC33
:100BC000FAE4C8F922EF4BFFEE4AFEED49FDEC488E
:100BD000FC22EB9FF5F0EA9E42F0E99D42F0E89C92
:100BE00045F022E8600FECC313FCED13FDEE13FE9D
:100BF000EF13FFD8F122E8600FEFC333FFEE33FEAF
:100C0000ED33FDEC33FCD8F122BB010789828A83E6
:100C1000020C435005E9F8020D55BBFE05E9F80248
:100C20000D6189828A83020D6DBB010789828A83E7
:100C3000020C5B5005E9F8020D7DBBFE05E9F802E8
:100C40000D8922E0FCA3E0FDA3E0FEA3E0FF22E08B
:100C5000F8A3E0F9A3E0FAA3E0FB22ECF0A3EDF0A7
:100C6000A3EEF0A3EFF022A42582F582E5F0358310
:100C7000F58322E0FBA3E0FAA3E0F922EBF0A3EA7C
:100C8000F0A3E9F022E493FB740193FA740293F960
:100C900022BB010789828A83020C735005E9F8029E
:100CA0000D95BBFE05E9F8020DB589828A83020C19
:100CB00085D083D082F8E4937012740193700DA3F1
:100CC000A393F8740193F5828883E47374029368A4
:100CD00060EFA3A3A380DFE50E2582F582E50D3545
:100CE00083F583B50D0485820E2210AF0685820E32
:100CF000F50D2285820EF50DD2AF22EC8EF0A4CC3C
:100D0000C5F0CCCDF8EFA4CEC5F02DFDE43CFCE859
:100D1000A42EC8C5F03DFDE43CFCEFA4FFE5F0289F
:100D2000FEE43DFDE43CFC22BB010CE58229F5829A
:100D3000E5833AF583E0225006E92582F8E622BBF6
:100D4000FE06E92582F8E222E58229F582E5833A6A
:100D5000F583E49322E6FC08E6FD08E6FE08E6FFDC
:100D600022E2FC08E2FD08E2FE08E2FF22E493FC36
:100D7000740193FD740293FE740393FF22ECF60852
:100D8000EDF608EEF608EFF622ECF208EDF208EECA
:100D9000F208EFF222E6FB08E6FA08E6F922F8E0AC
:100DA000FBA3A3E0F925F0F0E5821582700215831C
:100DB000E0FA38F022E2FB08E2FA08E2F922E5085C
:100DC000245AF582E43400F583E0050822900057A8
:100DD00030070390005AE475F001120D9E020A10CC
:100DE0002000E97F2ED2008018EF540F2490D434D5
:100DF00040D4FF30040BEF24BFB41A005003246129
:100E0000FFE50960021509050CE50C7002050B30C1
:100E1000070E900057E475F001120D9EEF020A29AB
:100E20000241FF7403D2078003E4C207F508900073
:100E300057120C7CE4F509F50BF50CE50960077F0A
:100E400020120E0180F5750AFFC201C200C202C263
:100E500003C205C206C208120DCDFF700D30070592
:100E60007F00120E12AF0CAE0B22B4255FC2D5C2AA
:100E700004120DCDFF24D0B40A00501A75F00A7880
:100E80000930D50508B6FF0106C6A426F620D5040C
:100E90007002D20380D924CFB41A00EF5004C2E507
:100EA000D204021013D20180C6D20080C0D20280C8
:100EB000BCD2D580BAD20580B47F20120E012002A8
:100EC000077401B5090040F1120DBEFF120E0102B8
:100ED0000E3BD208D2068095120DBEFB120DBEFA53
:100EE000120DBEF94A4B700679E47A107BFF20029E
:100EF0002EE509602A7E008E82758300120D28601F
:100F0000060EEE650A70F0C2D5EBC0E0EAC0E0E97B
:100F1000C0E0EE12105AD0E0F9D0E0FAD0E0FB12B7
:100F20000A10FF60AAEBC0E0EAC0E0E9C0E0120EE0
:100F300001D0E02401F9D0E03400FAD0E0FBE50A6A
:100F40000460DCD50AD980877BFF7A107956D202FB
:100F5000809C791080027908C206C2088008D2D528
:100F6000790A8004790AC2D5E50A047002F50AE418
:100F7000FAFDFEFF120DBEFC7B08200113120DBE10
:100F8000FD7B1030000A120DBEFE120DBEFF7B204D
:100F9000EC3382D592D55013C3E43000069FFFE4B2
:100FA0009EFEE42001039DFDE49CFCE4CBF8C2011D
:100FB000EC700CCFCECDCCE824F8F870F38017C3DA
:100FC000EF33FFEE33FEED33FDEC33FCEB33FB99F7
:100FD0004002FB0FD8E9EB300105F8D0E0C448B27D
:100FE00001C0E00AEC4D4E4F78207B0070C2EAB59C
:100FF0000A0040BCC0E012105CD0F0D0E020010438
:10100000C4C0E0C4B201C0F0120DEAD0F0D5F0EBDC
:10101000020E3B120CB10ED8530F52580EA94C0EB3
:10102000A5420F564F0F5E440F5E490EBE430F643C
:10103000550F48460F48450F48471104500EAD2D37
:101040000EB12E0ED42B0EB5230ED22010ED2A0E8B
:101050006D4800000ECC3F3F3F00790AA2D5200327
:1010600014300509B910020404B9080104A2D520FE
:1010700006025001042002689202B509005034C0F3
:10108000E07F203003197F30A20272067205500FF4
:101090001210B3C202C206C205C2087F30800F30F0
:1010A0000503E9C0E0120E01300503D0E0F9D0E0FD
:1010B000B509CC3005177F30B9100C120E017F58DE
:1010C0003004077F788003B90803120E013002054F
:1010D0007F2D020E017F202008F87F2B2006F322AF
:1010E000920280CF286E756C6C2900D201120DBE61
:1010F0003001F8C201780930D50108F6020E6D2DD5
:1011000050434958120DBE2403B405004001E49039
:1011100010FF93120DF2743A120DF2D20375090406
:10112000020F529000A6E0FFEFD394005003021488
:101130007D9000A6E0FFEF14FF123395900092EE31
:10114000F0A3EFF0900092E0FEA3E0FFEF2404FF95
:10115000EE3400FE900092EEF0A3EFF0900092E0EB
:10116000FEA3E0FF8F828E83E493FF90008DEFF06B
:10117000900092E0FEA3E0FF8F828E83A3120C8585
:10118000AE02AF01900094EEF0A3EFF0900118E0F2
:10119000FF900091EFF0900090E4F090008DE0FF60
:1011A000900090E0FEEEC39F400302147D900094F7
:1011B000E0FEA3E0FF8F828E83E493FF900091E036
:1011C000FEEE6F600302145C900094E0FEA3E0FF6B
:1011D0008F828E83740193FF900091E0FE740E2E37
:1011E000F582E43401F583E0FEEE6F600302145CE7
:1011F000900094E0FEA3E0FF8F828E83740293FF41
:10120000EF547FFF90008EEFF0900094E0FEA3E09B
:10121000FF8F828E83740393FFEF5403FF90008F40
:10122000EFF090008EE0FFEF75F00BA424AEF58296
:10123000E43400F583E4F0900094E0FEA3E0FF8F37
:10124000828E83740293FF90008EE0FEEE75F00BA9
:10125000A424AFF582E43400F583EFF0900094E02D
:10126000FEA3E0FF8F828E83740393FF90008EE0D5
:10127000FEEE75F00BA424ABF582E43400F583EFA9
:10128000F0900094E0FEA3E0FF8F828E83740493BD
:10129000FE740593FF90008EE0FDED75F00BA42425
:1012A000B3F582E43400F583EEF0A3EFF090009400
:1012B000E0FEA3E0FF8F828E83740293FFEF5480E1
:1012C000FF7E00EF4E603C90008FE0FFEFB4010422
:1012D0007F0780027F0D90008EE0FEEE75F00BA47C
:1012E00024B0F582E43400F583EFF090008EE0FF47
:1012F000EF75F00BA424ACF582E43400F58374019F
:10130000F0803990008FE0FFEFB401047F05800288
:101310007F0990008EE0FEEE75F00BA424B0F582FC
:10132000E43400F583EFF090008EE0FFEF75F00BF2
:10133000A424ACF582E43400F583E4F090008EE060
:10134000FF75F010EF905FFE120C677401F09000D3
:101350008EE0FFEF75F00BA424B3F582E43400F5C2
:1013600083E0FEA3E0FFEEFF7E0090008EE0FE75BE
:10137000F010EE905FFC120C67EFF090008EE0FF33
:10138000EF75F00BA424B3F582E43400F583E0FE9E
:10139000A3E0FFEF54FFFF90008EE0FE75F010EE2B
:1013A000905FFD120C67EFF090008EE0FFEF75F09C
:1013B0000BA424B1F582E43400F583E0FEA3E0FF42
:1013C000EF54FFFF90008EE0FE75F010EE90607617
:1013D000120C67EFF090008EE0FFEF75F00BA42485
:1013E000B1F582E43400F583E0FEA3E0FFEEFF7E7A
:1013F0000090008EE0FE75F010EE906077120C67A2
:10140000EFF090008EE0FFEF75F00BA424B1F582B1
:10141000E43400F583E0FEA3E0FFEF54FFFF90000B
:101420008EE0FE75F010EE906074120C67EFF09095
:10143000008EE0FFEF75F00BA424B1F582E43400D8
:10144000F583E0FEA3E0FFEEFF7E0090008EE0FE5D
:1014500075F010EE906075120C67EFF0900094E05C
:10146000FEA3E0FFEF2407FFEE3400FE900094EEB1
:10147000F0A3EFF0900090E004F002119B229000A6
:101480008FE4F0906004E0FF900090EFF090600037
:10149000E0FFEF5480FF7E00EF4E70030215A19035
:1014A0006001E0FFEF120CB1150801152502156768
:1014B0000314B806000016B4906003E0FFEFB421F7
:1014C0001D12280C900110E0FEA3E0FFEF4E700308
:1014D0000216B412383F90008FEFF00216B49060FD
:1014E00003E0FFEF642260030216B4122497900118
:1014F00010E0FEA3E0FFEF4E70030216B412383F77
:1015000090008FEFF00216B4121A9E900110E0FEC8
:10151000A3E0FFEF4E70030216B412383F90008F25
:10152000EFF00216B4900090E0FFEFC39402400386
:101530000216B4906002E0FFEF60030216B490015F
:1015400010E4F0A37401F0900090E0FF74DF2FF935
:10155000E43401FA7B01900112120C7C12383F90A6
:10156000008FEFF00216B4900090E0FFEFC39402FA
:1015700040030216B4900110E4F0A37401F090004F
:1015800090E0FF74DB2FF9E43401FA7B0190011243
:10159000120C7C12383F90008FEFF00216B4021646
:1015A000B4906001E0FFEF120CB115B70915D40A31
:1015B00016800B000016B4121A9E900110E0FEA3D4
:1015C000E0FFEF4E70030216B4123A9990008FEFCD
:1015D000F00216B4900090E0FFEFC39402400302C3
:1015E00016B4906002E0FFEF60030216B49060034F
:1015F000E0FF900090E0FE74DF2EF582E43401F508
:1016000083EFF0900090E0FF74DD2FF582E4340169
:10161000F583E0FF900090E0FE74DF2EF582E43465
:1016200001F583E0FEEEC39F5013900090E0FF743D
:10163000DD2FF582E43401F583E4F08039900090E9
:10164000E0FF74DD2FF582E43401F583E0FFEFD392
:1016500094014022900090E0FF74DF2FF582E43483
:1016600001F583E0FF900090E0FE74DD2EF582E44A
:101670003401F583EFF01242E890008FEFF08034F0
:10168000900090E0FFEFC394025029906002E0FFC9
:10169000EFD39401501E906002E0FF900090E0FEB6
:1016A00074DB2EF582E43401F583EFF01242E8900A
:1016B000008FEFF090008FE0FF221243CDD2AF9069
:1016C00044F474FDF07D017F001241D6124271EFA7
:1016D0006009124471EF60031231B3124471EF607C
:1016E000EB1243A3EF60557B017A007902123B575E
:1016F000900000EEF0A3EFF0900000E0FEA3E0FF0A
:10170000EF4E60381243B8EF60FA7B017A0079023D
:10171000900000E0FCA3E0FD1234C3900000E0FE66
:10172000A3E0FFEF64404E70131243B8EF60FA7B02
:10173000007A0079007D007C001234C3123E1190C3
:101740000042EFF0900042E0FFEF6080900042E046
:10175000FFEF5401FF7E00EF4E7003021808122FB6
:1017600081C004C005C006C00712438D7E00C006BC
:10177000C007124377EF75F003A424B3F582E43475
:1017800001F583120C73120A10FFC007124361EFB8
:1017900075F003A424C2F582E43401F583120C73BE
:1017A000900064120C7CD007900063EFF0D007D05B
:1017B00006900061EEF0A3EFF0D007D006D005D080
:1017C0000490005D120C5B7B017A007943C003C07A
:1017D00002C0017BFF7A3C792E90005A120C7CD01B
:1017E00001D002D003120E237D007F00123D187B32
:1017F000FF7A3C793D123E5F7D007F00123D187BF1
:10180000017A007943123E5F900042E0FFEF5402FC
:10181000FF7E00EF4E70030216CC1243339000425D
:10182000EFF07B017A007943C003C002C0017BFF67
:101830007A3C795290005A120C7C900042E0FFEF03
:101840005401FF7E00EF4E60087BFF7A3C79608098
:10185000067BFF7A3C796390005D120C7C9000421D
:10186000E0FFEF5402FF7E00EF4E60087BFF7A3C02
:10187000796080067BFF7A3C7963900060120C7C73
:10188000D001D002D003120E237D007F01123D183B
:101890007BFF7A3C793D123E5F7D007F01123D184F
:1018A0007B017A007943123E5F0216CC2290009AA7
:1018B000120C7C7B0C7A017903124459E4FCFDFE86
:1018C00090009A120C73120C2990009A120C73C09B
:1018D00003C002C001120C09C004C005C006C00745
:1018E0007B0C7A017904124459E4FCFDFE7808125D
:1018F0000BF6A804A905AA06AB07D007D006D005A9
:10190000D004120BC5D001D002D003120C299000D4
:101910009A120C73C003C002C001120C09C004C0AB
:1019200005C006C0077B007A4679EC124459E4FCF6
:10193000FDFE7810120BF6A804A905AA06AB07D085
:1019400007D006D005D004120BC5D001D002D003B9
:10195000120C2990009A120C73C003C002C001122D
:101960000C09C004C005C006C0077B0C7A017902CF
:10197000124459E4FCFDFE7818120BF6A804A905E0
:10198000AA06AB07D007D006D005D004120BC5D0ED
:1019900001D002D003120C297B0C7A017901124488
:1019A00059E4FCFDFE90009A120C73E92404F9EA54
:1019B0003400FA120C2990009A120C73E92404F9ED
:1019C000EA3400FAC003C002C001120C09C004C00E
:1019D00005C006C0077B0C7A017900124459E4FC6B
:1019E000FDFE7808120BF6A804A905AA06AB07D0DD
:1019F00007D006D005D004120BC5D001D002D00309
:101A0000120C2990009A120C73E92404F9EA3400AC
:101A1000FAC003C002C001120C09C004C005C00610
:101A2000C0077B0C7A017905124459E4FCFDFE786D
:101A300010120BF6A804A905AA06AB07D007D0061A
:101A4000D005D004120BC5D001D002D003120C294E
:101A500090009A120C73E92404F9EA3400FAC003E6
:101A6000C002C001120C09C004C005C006C0077B3B
:101A70000C7A017906124459E4FCFDFE7818120B29
:101A8000F6A804A905AA06AB07D007D006D005D052
:101A900004120BC5D001D002D003120C29229001F0
:101AA00010E4F0A3E4F09000A6E0FFEF14FF12337F
:101AB00095900091EEF0A3EFF0906003E0FF9000AE
:101AC00096EFF0906004E0FF900097EFF0900097A1
:101AD000E0FF7E00EF2402FFEE3400FEEF7802C349
:101AE00033CE33CED8F9FF900091E0FCA3E0FDEFB8
:101AF0002DFFEE3CFE900091EEF0A3EFF0900091F0
:101B0000E0FEA3E0FF8F828E83A3120C85AE02AFAE
:101B100001900091EEF0A3EFF0900097E0FFEFC38B
:101B200094024003021C5A900097E0FF740E2FF5B8
:101B300082E43401F583E0FF7E04EF8EF0A4FFAE73
:101B4000F0900091E0FCA3E0FDEF2DFFEE3CFE9055
:101B50000091EEF0A3EFF0900091E0FEA3E0FF8F84
:101B6000828E83A3120C85AE02AF01900091EEF03D
:101B7000A3EFF0900096E0FFEFC394015003021C26
:101B80005A900096E0FFEFD394034003021C5A9052
:101B90000096E0FF7E00EF24FFFFEE34FFFEEF78BB
:101BA00002C333CE33CED8F9FF900091E0FCA3E01E
:101BB000FDEF2DFFEE3CFE900091EEF0A3EFF090D4
:101BC0006002E0FF900096EFF0900091E0FEA3E04D
:101BD000FF8F828E83E493FF900096E0FEEFC39E1A
:101BE0004078900091E0FEA3E0FF8F828E83A312E5
:101BF0000C85900093120C7C900096E0FF7E08EF1D
:101C00008EF0A4FFAEF0900093120C73E92FF9EA66
:101C10003EFA900093120C7C900093120C73E9240E
:101C200002F9EA3400FA120C91900112120C7C9025
:101C30000093120C73120A51FFAEF0900110EEF0F7
:101C4000A3EFF0900093120C73E92405F9EA340035
:101C5000FA120C91900115120C7C2290005DEFF0AD
:101C600090005E120C7C90005DE0FFEFD39400507A
:101C700003021DDF90005DE0FFEFC3940940030203
:101C80001DDF90005DE0FFEF75F00BA424B1F5823D
:101C9000E43400F583E0FEA3E0FFC3E49FFF740299
:101CA0009EFE900061E0FCA3E0FDD3ED9FEC9E4022
:101CB0002890005DE0FFEF75F00BA424B1F582E4FD
:101CC0003400F583E0FEA3E0FFC3E49FFF74029EAF
:101CD000FE900061EEF0A3EFF0900061E0FEA3E063
:101CE000FFEEFF7E0090005DE0FEEE75F00BA42499
:101CF000AEF582E43400F583E0FEEF4EFF90005D28
:101D0000E0FE75F010EE905FFC120C67EFF09000B3
:101D100061E0FEA3E0FFEF54FFFF90005DE0FE7581
:101D2000F010EE905FFD120C67EFF07B007A007907
:101D300000C003C002C00190005E120C73D082D0BC
:101D400083D0E06B7008E965827003EA65836054B4
:101D5000900063E4F0A3E4F0900061E0FEA3E0FFF4
:101D6000900063E0FCA3E0FDC3ED9FEC9E50359036
:101D7000005E120C73900063E0FEA3E0FFE92FF910
:101D8000EA3EFA120A10FF90005DE0FE75F010EED8
:101D9000906078120C67EFF0900063E475F0011228
:101DA0000A3B80B490005DE0FFEF75F00BA424AC1B
:101DB000F582E43400F583E4F090005DE0FFEF7518
:101DC000F00BA424B0F582E43400F583E0FF90002A
:101DD0005DE0FE75F010EE905FFE120C67EFF022F2
:101DE0007F947E017D007C0090005F120C5B90511F
:101DF00020E0FFEF5480FFEFF0905122E0FFEF541E
:101E0000F0FF90005EEFF090005EE0FFEF440FFF08
:101E1000905122EFF0905123E0FFEF54F0FF90003B
:101E20005EEFF090005EE0FF905123EFF0905124C0
:101E3000E0FFEF54F0FF90005EEFF090005EE0FFF7
:101E4000905124EFF0905120E0FFEF54DFFFEFF0CE
:101E5000905120E0FFEF4440FFEFF07F007E001242
:101E60004150905120E0FFEF4410FFEFF07F017EE2
:101E700000124150905121E0FF90005EEFF0905130
:101E800020E0FFEF54EFFFEFF07F007E00124150A3
:101E900090005EE0FFEF5408FF90005EEFF090517D
:101EA00020E0FFEF4410FFEFF07F017E0012415071
:101EB000905120E0FFEF54EFFFEFF090005EE0FF65
:101EC000EF70077F0A7E0012415090005F120C43B2
:101ED0007BFF7AFF79FF78FF120A9B90005F120C5C
:101EE0005B90005EE0FFEF601290005F120C43D346
:101EF000EF9400EE94004003021E5B905120E0FF3F
:101F0000EF54BFFFEFF0905120E0FFEF5480FFEF60
:101F1000F0905122E0FFEF54F0FFEFF0905123E0FA
:101F2000FFEF54F0FF90005EEFF090005EE0FFEFF7
:101F3000440FFF905123EFF0905124E0FFEF54F055
:101F4000FF90005EEFF090005EE0FFEF440FFF9027
:101F50005124EFF022C0E0C0F0C083C082C085C031
:101F600084C086758600C093759300C0D075D0007C
:101F7000C000C001C002C003C004C005C006C00745
:101F8000906028E0FF90007FEFF090007FE0FFEF8F
:101F90005410FF7E00EF4E70030220A39000807467
:101FA00001F090007FE0FFEF5480FF7E00EF4E6075
:101FB0003190007FE0FFEF540FFF7E00EF64014E91
:101FC0006007900080E4F080461235529000A7E050
:101FD000FFEF5480FF7E00EF4E6034900080E4F00D
:101FE000802D90007FE0FFEF5440FF7E00EF4E60B9
:101FF0000512424C801990007FE0FFEF5420FF7ED5
:1020000000EF4E600512417D8005900080E4F09065
:102010000080E0FFEF70030220A3906028E0FF90B3
:10202000007FEFF090007FE0FFEF5480FF7E00EF35
:102030004E70709000AAE0FF900122E0FEEE4FFF8C
:1020400090007FEFF090007FE0FF906029EFF0902C
:102050006029E0FF90007FE0FEEE6F70469000A7E1
:10206000E0FF900080EFF0906028E0FFEF5480FFE9
:1020700090007FEFF090007FE0FFEF70189000A7D6
:10208000E0FF906028EFF0906028E0FFEF540FFF32
:10209000900080EFF09000A7E0FF900080E0FEEE5F
:1020A000B507BAD007D006D005D004D003D002D0EF
:1020B00001D000D0D0D093D086D084D085D082D02B
:1020C00083D0F0D0E03290009C7401F090009CE04E
:1020D000FFEFC39409400302221A90009CE0FF75B1
:1020E000F010EF906070120C67740CF090009CE0A0
:1020F000FFEF75F00BA424B0F582E43400F583E023
:10210000FFEF604790009CE0FFEF75F00BA424AF59
:10211000F582E43400F583E0FFEF5480FF7E00EFAA
:102120004E601490009CE0FF75F010EF905FFE127F
:102130000C67740CF0802690009CE0FF75F010EFA7
:10214000905FFE120C677408F0801290009CE0FF14
:1021500075F010EF905FFE120C677480F090009C99
:10216000E0FFEF75F00BA424B1F582E43400F583B1
:10217000E0FEA3E0FFEF54FFFF90009CE0FE75F04F
:1021800010EE906076120C67EFF090009CE0FFEF8D
:1021900075F00BA424B1F582E43400F583E0FEA3CE
:1021A000E0FFEEFF7E0090009CE0FE75F010EE90E8
:1021B0006077120C67EFF090009CE0FFEF75F00B7A
:1021C000A424B1F582E43400F583E0FEA3E0FFEF40
:1021D00054FFFF90009CE0FE75F010EE90607412CA
:1021E0000C67EFF090009CE0FFEF75F00BA424B1BA
:1021F000F582E43400F583E0FEA3E0FFEEFF7E000D
:1022000090009CE0FE75F010EE906075120C67EF88
:10221000F090009CE004F00220CC90600A74FFF083
:1022200022904800E4F0122B0A90480074C0F07B22
:10223000007A4679E8124459EF4405FD7B007A465E
:1022400079E8124465750A00E50AC39408503AAF6C
:102250000AEF75F005A4249CF582E43446F583AFBB
:1022600082AE838E088F09AE08AF098F828E8312EB
:102270000C85AE08AF098F828E83740393FC7404BF
:1022800093FD124302050A80BF7E467F3D12412125
:102290007B017A507903124459EF4402FD7B017AA5
:1022A0005079031244657B017A507913124459EF37
:1022B0004402FD7B017A5079131244657C467D23EC
:1022C0007B007A5179F07F0A7E001242267C467D9F
:1022D0002D7B007A5179127F087E001242267C46BF
:1022E0007D357B007A5179227F087E00124226904C
:1022F00044F47401F0904322E0FFEF4408FF904360
:1023000022EFF09046ECE0FFEFC3940550069046B4
:1023100089743AF07B017A5079077D401244657BDD
:10232000017A5079177D4012446512404B7B007A48
:102330004379A0C003C002C0017B007A4379B0900A
:102340000005120C7CD001D002D0037F0E7E00125B
:1023500040ED9043B0E0FFEF54FDFFEFF02290001E
:102360008DE4F0906004E0FFEF547FFF90008EEF6B
:10237000F090008EE0FFEFD3940050030224919080
:10238000008EE0FFEFC39409400302249190008E79
:10239000E0FFEF75F00BA424ADF582E43400F58383
:1023A000E0FFEF54FEFFEFF090008EE0FFEF75F0DE
:1023B0000BA424AEF582E43400F583E4F090008EA3
:1023C000E0FF75F010EF905FFC120C67747FF090E7
:1023D000008EE0FFEF75F00BA424ACF582E434002E
:1023E000F583E0FFEF54FDFFEFF090008EE0FFEF8C
:1023F00075F00BA424AFF582E43400F583E0FFEF21
:102400005480FF7E00EF4E604190008EE0FFEF753C
:10241000F00BA424ACF582E43400F583E0FFEFB4C4
:10242000011490008EE0FF75F010EF905FFE120C2B
:1024300067740CF0805390008EE0FF75F010EF9001
:102440005FFE120C67740DF0803F90008EE0FFEF8E
:1024500075F00BA424ACF582E43400F583E0FFEFC3
:10246000B4011490008EE0FF75F010EF905FFE1243
:102470000C677408F0801290008EE0FF75F010EF8A
:10248000905FFE120C677409F01242E890008DEF25
:10249000F090008DE0FF229000A6E0FFEF14FF1205
:1024A0003395900091EEF0A3EFF0906004E0FF9080
:1024B0000096EFF0900096E0FF7E00EF2402FFEE22
:1024C0003400FEEF7802C333CE33CED8F9FF90004C
:1024D00091E0FCA3E0FDEF2DFFEE3CFE900091EEBD
:1024E000F0A3EFF0900091E0FEA3E0FF8F828E83D7
:1024F000A3120C85AE02AF01900091EEF0A3EFF0B5
:10250000900096E0FF740E2FF582E43401F583E02D
:10251000FF7E04EF8EF0A4FFAEF0900091E0FCA3EC
:10252000E0FDEF2DFFEE3CFE900091EEF0A3EFF00A
:10253000900091E0FEA3E0FF8F828E83A3120C85B2
:10254000AE02AF01900091EEF0A3EFF0900091E0A9
:10255000FEA3E0FFEF240CFFEE3400FE900091EEAE
:10256000F0A3EFF0900091E0FEA3E0FF8F828E8356
:10257000A3120C85900093120C7C900093120C73A4
:10258000E92401F9EA3400FA120A10FF7E00EF7F15
:1025900000FE900093120C73120A10FD7C00EE4CAA
:1025A000FEEF4DFF900110EEF0A3EFF090009312BC
:1025B0000C73E92402F9EA3400FA900112120C7C3F
:1025C0002290008D120C7C900091E4F07B007A0048
:1025D0007900C003C002C00190008D120C73D0823C
:1025E000D083D0E06B7008E965827003EA65837080
:1025F000030226EA90008D120C737422120A2990AD
:10260000008D120C73E92401F9EA3400FA74031204
:102610000A297B017A0079921218AD900090740219
:10262000F0900090E0FFEFC3942240030226EA906E
:102630000091E0FF74922FF582E43400F583E0FF0F
:10264000EFC4540FFFEF9046C493FF90008D120C1F
:1026500073900090E0FEE92EF9E43AFAEF120A29AD
:10266000900090E0FF7E00EF2401FFEE3400FE902A
:10267000008D120C73E92FF9EA3EFAE4120A299050
:102680000091E0FF74922FF582E43400F583E0FFBF
:10269000EF540FFFEF9046C493FF900090E0FEEEE2
:1026A000FD7C00ED2402FDEC3400FC90008D120C4A
:1026B00073E92DF9EA3CFAEF120A29900090E0FF45
:1026C0007E00EF2403FFEE3400FE90008D120C73A9
:1026D000E92FF9EA3EFAE4120A29900091E004F0A9
:1026E000900090E02404F0022621221243E29000A0
:1026F00059EFF09043A5E0FFEF4401FFEFF0904366
:10270000B5E0FFEF4401FFEFF090609D7401F090A1
:1027100060097402F0906010E0FFEF547FFFEFF06B
:102720007F007E00124150904394E0FFEF54F9FF88
:10273000EFF0906012E0FFEF54DFFFEFF090439472
:10274000E0FFEF4401FFEFF07F017E001241507F78
:10275000287E001241509051F8E0FFEF547FFFEFC8
:10276000F09051F8E0FFEF54BFFFEFF0904394E09A
:10277000FFEF4402FFEFF07F027E001241509043D2
:1027800094E0FFEF4404FFEFF0906084E4F0906089
:1027900085E4F0900059E0FF12431B7D077F17127C
:1027A0003AF87C3D7D6F7F171236627D077F1812E5
:1027B0003AF87C1F7D557F181236627D077F15120F
:1027C0003AF87C417D4F7F151236627D077F0012FB
:1027D0003AF87C397D737F001236627D077F0112E3
:1027E0003AF87C397DD57F011236627D077F02126F
:1027F0003AF87C3A7D377F021236627D077F0C12F1
:102800003AF87C3D7DC07F0C123662229000A6E033
:10281000FFEF14FF123395900091EEF0A3EFF090CC
:102820006004E0FF900096EFF0900096E0FF7E00DD
:10283000EF2402FFEE3400FEEF7802C333CE33CE36
:10284000D8F9FF900091E0FCA3E0FDEF2DFFEE3CF6
:10285000FE900091EEF0A3EFF0900091E0FEA3E077
:10286000FF8F828E83A3120C85AE02AF0190009180
:10287000EEF0A3EFF0900096E0FF740E2FF582E4E7
:102880003401F583E0FF7E04EF8EF0A4FFAEF090FC
:102890000091E0FCA3E0FDEF2DFFEE3CFE900091E7
:1028A000EEF0A3EFF0900091E0FEA3E0FF8F828EA8
:1028B00083A3120C85AE02AF01900091EEF0A3EF5E
:1028C000F0900091E0FEA3E0FFEF2410FFEE340053
:1028D000FE900091EEF0A3EFF0900091E0FEA3E0F7
:1028E000FF8F828E83A3120C85900093120C7C9034
:1028F0000093120C73120A10FF7E00900110EEF08C
:10290000A3EFF0900093120C73900112120C7C2232
:1029100090008FE4F0906004E0FF1237D2900090B6
:10292000EFF0906000E0FFEF5480FF7E00EF4E601C
:1029300045906001E0FFEF120CB129412100002A0F
:102940000D900110E4F0A37407F0900090E0FF7E7A
:1029500007EF8EF0A4FFAEF074682FF974013EFA11
:102960007B01900112120C7C12383F90008FEFF027
:10297000022A0D022A0D906001E0FFEF120CB1292E
:10298000892029D12200002A0D900110E4F0A374BF
:1029900007F0900090E0FF7E07EF8EF0A4FFAEF00E
:1029A00074682FF974013EFA7B01900112120C7CBD
:1029B000900090E0FF74872FF582E43401F583E006
:1029C000FFEF4401FFEFF0123A9990008FEFF08093
:1029D0003C906002E0FF7E00900090E0FDED25E07D
:1029E0002489F582E43401F583EEF0A3EFF0900042
:1029F00090E0FF74872FF582E43401F583E0FFEF68
:102A00004402FFEFF01242E890008FEFF090008F49
:102A1000E0FF2290009CEEF0A3EFF090009EEDF01E
:102A200090009FEBF090009CE0FEA3E0FF8F828E71
:102A300083740393FFEF5403FF9000A0EFF0900026
:102A40009CE0FEA3E0FF8F828E83740293FFEF541D
:102A500080FF7E00EF4E60709000A0E0FFEF640307
:102A6000603090009EE0FF90009FE0FEEEFD7C0055
:102A70007C00ED5401FD74822DF58274013CF583D8
:102A8000EFF090009FE0FFEF4401FF90009FEFF018
:102A9000807290009EE0FF90009FE0FEEE131354C2
:102AA0003FFEEEFD7C007C00ED5401FD74802DF5B1
:102AB0008274013CF583EFF090009FE0FFEF440447
:102AC000FF90009FEFF0803C9000A0E0FFEF6403D8
:102AD000603290009EE0FF90009FE0FEEEC313FE88
:102AE000EEFD7C007C00ED5401FD74842DF58274B4
:102AF000013CF583EFF090009FE0FFEF4402FF9070
:102B0000009FEFF090009FE0FF227C467D1F7B003E
:102B10007A4179007F047E001242269043007406B9
:102B2000F09042007452F07B0C7A01790F124459F4
:102B30009046A1EFF07B007A4279227D187C081242
:102B4000443E7B007A4279207D517C1212443E90B3
:102B50000004E4F07F197E007D007C0090000012EC
:102B60000C5B900000120C43D3EF9400EE940040F5
:102B70004E900004E0FFEF64036044904225E0FFC4
:102B8000EF5401FF7E00900004E0FEEE25E0FEEE33
:102B90004FFFEF5403FF900004EFF07FE07E017DD4
:102BA000007C00124000900000120C437BFF7AFF73
:102BB00079FF78FF120A9B900000120C5B80A390B3
:102BC0000000120C43EF4E70057F0312440C7B0093
:102BD0007A4079047D007C0112443E9040047407E1
:102BE000F0904006E4F09040087448F0904004E40F
:102BF000F0904009E4F09040017402F02290005DF2
:102C0000EFF090005E120C7C7B007A007900C0032C
:102C1000C002C00190005E120C73D082D083D0E05D
:102C20006B7008E965827003EA65837003022CDB30
:102C300090005DE0FFEFD394005003022CDB900086
:102C40005DE0FFEFC394094003022CDB90005DE0E0
:102C5000FF1235DB900061E0FCA3E0FDD3ED9FECBB
:102C60009E400A90005DE0FF1235DB800890006115
:102C7000E0FEA3E0FF900061EEF0A3EFF0900063B0
:102C8000E4F0A3E4F0900061E0FEA3E0FF900063B5
:102C9000E0FCA3E0FDC3ED9FEC9E503590005DE0AD
:102CA000FF75F010EF906078120C67E0FF90005E07
:102CB000120C73900063E0FCA3E0FDE92DF9EA3CFF
:102CC000FAEF120A29900063E475F001120A3B80C2
:102CD000B490005DE0FF123CC18008900061E4F018
:102CE000A3E4F0900061E0FEA3E0FF22759300787A
:102CF000007583467582E8E04401F0009046ECE000
:102D0000F99046FAE0FAB903225420B40012B80050
:102D10001AEA901FFFF07401901FFEF09046F6F043
:102D2000901FFEE06005901FFFE0FA90480074C01D
:102D3000F075812190000078007920E4F0A3D8FCA0
:102D4000D9FAEA9001D6F0020011750D1F750EFD3B
:102D5000123EAD122221022D940216BAE493A3F87A
:102D6000E493A34003F68001F208DFF48029E493A2
:102D7000A3F85407240CC8C333C4540F4420C88399
:102D80004004F456800146F6DFE4800B010204089B
:102D90001020408090375EE47E019360BCA3FF5416
:102DA0003F30E509541FFEE493A360010ECF54C0E9
:102DB00025E060A840B8E493A3FAE493A3F8E49371
:102DC000A3C8C582C8CAC583CAF0A3C8C582C8CA79
:102DD000C583CADFE9DEE780BE900059EFF09000BE
:102DE0005AEDF090005BE4F090005BE0FFEFC394DD
:102DF00002501A90005BE0FF74DB2FF582E434018F
:102E0000F5837401F090005BE004F080DB900059E2
:102E1000E0FF900124EFF0900123E4F090011CE426
:102E2000F09000A6E4F0900118E4F090011FE4F0A7
:102E30009000A5E4F0900119E4F09044C27480F091
:102E40009044C37401F09044C27420F09044C07464
:102E500001F09044C07402F09044C07404F09000FB
:102E60005AE0FFEF120CB12E71002E7E0100002EF1
:102E70008B906009E0FFEF54FEFFEFF08018906048
:102E800009E0FFEF4401FFEFF0800B906009E0FFE5
:102E9000EF4401FFEFF09060287403F09060087435
:102EA00080F07F017E007D007C0012400090601267
:102EB0007404F02290008DE4F0906004E0FFEF5481
:102EC0007FFF90008EEFF090008EE0FFEFD3940034
:102ED0005003022F7B90008EE0FFEFC39409400364
:102EE000022F7B90008EE0FFEF75F00BA424ADF570
:102EF00082E43400F583E0FFEF4401FFEFF090003F
:102F00008EE0FFEF75F00BA424AEF582E43400F5FB
:102F100083E4F090008EE0FFEF75F00BA424ACF595
:102F200082E43400F583E0FFEF4402FFEFF090000D
:102F30008EE0FFEF75F00BA424AFF582E43400F5CA
:102F400083E0FFEF5480FF7E00EF4E601490008E10
:102F5000E0FF75F010EF905FFE120C67748DF0804B
:102F60001290008EE0FF75F010EF905FFE120C677C
:102F70007489F01242E890008DEFF090008DE0FF30
:102F800022900186E0FFEF75F007A4246BF582E440
:102F90003401F583E0FFE4FCFDFE900057120C5B6A
:102FA000900057120C437808120BF6A804A905AA42
:102FB00006AB07900186E0FFEF75F007A4246AF5E1
:102FC00082E43401F583E0FFE4FCFDFE120BC590C2
:102FD0000057120C5B900057120C437808120BF646
:102FE000A804A905AA06AB07900186E0FFEF75F0DB
:102FF00007A42469F582E43401F583E0FFE4FCFDD5
:10300000FE120BC5900057120C5B900057120C4338
:103010007808120BF6A804A905AA06AB079001864A
:10302000E0FFEF75F007A42468F582E43401F5832E
:10303000E0FFE4FCFDFE120BC5900057120C5B9004
:103040000057120C4322900093E4F0900119E0FF26
:103050007E009000A8EE8FF0120A3B900110E0FE77
:10306000A3E0FFD3EF9400EE9400404C900093E077
:10307000FFEFC394085041900112120C73120A1012
:10308000FF900093E0FEE42EF582E43460F583EFD8
:10309000F0900112120C73E92401F9EA3400FA905D
:1030A0000112120C7C900093E004F090011074FF68
:1030B00075F0FF120A3B80A3900119E0FFEF64084E
:1030C000600B900093E0FFEFD39400401C9001222E
:1030D000E0FFEF6480FF900122EFF09000A7740FF3
:1030E000F09001237402F0800C9000A77402F0901D
:1030F00001237402F0900093E0FF9000AAEFF0909B
:103100000093E0FF900119EFF022900082E4F0902C
:103110006029E0FFEF540FFFEF24FEFF900081EFE6
:10312000F0900081E0FF7E009000A8EE8FF0120A80
:103130003B900110E0FEA3E0FFD3EF9400EE94007B
:103140004052900081E0FFEFD3940040479000820E
:10315000E0FFE42FF582E43460F583E0FF90011294
:10316000120C73EF120A29900112120C73E9240158
:10317000F9EA3400FA900112120C7C900082E0040B
:10318000F0900081E014F090011074FF75F0FF12D0
:103190000A3B809D900081E0FF9000AAEFF0900133
:1031A00022E0FFEF6480FF900122EFF09000A7740F
:1031B0000BF022900059E4F0900186E4F090018732
:1031C000E4F0900188E4F0900057E4F0900057E0BC
:1031D000FFEFC394025039900057E0FF74842FF53D
:1031E00082E43401F583E0FF900058EFF09000583E
:1031F000E0FFEF6013900058E0FF7409D39F400890
:10320000900058E0FF123CC1900057E004F080BCF1
:10321000900182E0FFEF6031900184E0FFEF6029D0
:10322000900180E0FFEF6021900182E0FFEFC39406
:10323000095016900184E0FFEFC39409500B9001F0
:1032400080E0FFEFC3940940069000597401F090AC
:103250000059E0FF2290008DE4F0906004E0FF90C0
:10326000008EEFF09000A6E0FFEF14FF1233959070
:103270000090EEF0A3EFF0900090E0FEA3E0FF8F4F
:10328000828E83A3120C85E92404F9EA3400FA1231
:103290000A10FF90008FEFF090008FE0FF90008EFB
:1032A000E0FEEED39F400B90008EE0FFEFD3940240
:1032B000503E90008EE0FF740E2FF582E43401F54D
:1032C00083E0FF90008EE0FE741D2EF582E4340151
:1032D000F583EFF0906002E0FF90008EE0FE740E48
:1032E0002EF582E43401F583EFF090008D7401F047
:1032F00090008DE0FF229000A6E0FFEF14FF123354
:103300009590009CEEF0A3EFF090009CE0FEA3E00F
:10331000FFEF4E606F90009CE0FEA3E0FF8F828E77
:1033200083A3120C85E92404F9EA3400FA120A1086
:10333000FF9000A0EFF09000A0E0FF7E00EF2402DD
:10334000FFEE3400FEEF7802C333CE33CED8F9FF60
:1033500090009CE0FCA3E0FDEF2DFFEE3CFE900012
:103360009CEEF0A3EFF090009CE0FEA3E0FF8F82C4
:103370008E83A3120C85AE02AF0190009EEEF0A3E7
:10338000EFF0800890009EE4F0A3E4F090009EE04F
:10339000FEA3E0FF229000A1EFF0900124E0FFEFF8
:1033A00025E025E024E2F582E43445F583120C851E
:1033B000AE02AF019000A2EEF0A3EFF09000A2E009
:1033C000FEA3E0FFEF2408FFEE3400FE9000A2EE23
:1033D000F0A3EFF09000A2E0FEA3E0FF8F828E83C7
:1033E000E493FF9000A1E0FEEEC39F400A9000A28C
:1033F000E4F0A3E4F080309000A2E0FEA3E0FF8FB1
:10340000828E83C083C0829000A1E0FFD082D083EF
:1034100075F004EF120C67A3120C85AE02AF019099
:1034200000A2EEF0A3EFF09000A2E0FEA3E0FF22E6
:10343000906000E0FFEF5403FFEF120CB13447013E
:1034400034530200003473906004E0FF90008EEF6C
:10345000F08025906004E0FFEF547FFFEF75F00BE4
:10346000A424B5F582E43400F583E0FF90008EEFEC
:10347000F0800590008EE4F090008EE0FF90011A3D
:10348000E0FCA3E0FD8D828C83E5822FF582E4359C
:1034900083F583E493FFEF120CB134AE0234A4033E
:1034A000000034B812147E90008DEFF0800F1229C6
:1034B0001090008DEFF0800590008DE4F090008D6D
:1034C000E0FF22900057120C7C90005AECF0A3ED24
:1034D000F0900186E0FF74822FF582E43401F583D9
:1034E000E0FF90005CEFF090005CE0FFEF75F00B08
:1034F000A424B3F582E43400F583E0FEA3E0FF905A
:10350000005AE0FCA3E0FDD3ED9FEC9E4025900027
:103510005CE0FFEF75F00BA424B3F582E43400F512
:1035200083E0FEA3E0FF90005AEEF0A3EFF07F00EF
:103530001243F790005CE0FF900057120C7390006C
:103540005AE0FCA3E0FD900061ECF0A3EDF0121C4A
:103550005B22906028E0FF900081EFF0900081E016
:10356000FF906028EFF0906028E0FF900081EFF07E
:10357000900081E0FFEF5480FF7E00EF4E600B90E3
:103580000081E0FF9000A7EFF0227F021239119036
:103590006000E0FFEF5460FFEF120CB135A9003579
:1035A000B32035BD40000035C712001A900081EFEE
:1035B000F08019123430900081EFF0800F123EFB42
:1035C000900081EFF08005900081E4F0900081E0B0
:1035D000FFEF70069000A77403F022900065EFF0F3
:1035E000900066E4F0A3E4F0900065E0FFEFD39470
:1035F000004066900065E0FFEFC39409505B9000C7
:1036000065E0FF75F010EF905FFC120C67E0FF7E45
:10361000007E00EF540FFF900066EEF0A3EFF090F5
:103620000065E0FF75F010EF905FFD120C67E0FFA2
:10363000EFFD7C00900066E0FEA3E0FFEF7F00FE60
:10364000EE4CFEEF4DFF900066EEF0A3EFF0900021
:103650006674FF75F0FE120A3B900066E0FEA3E080
:10366000FF2290005AEFF090005BECF0A3EDF09099
:10367000005AE0FFEFD3941F5003D38001C34005ED
:103680007F001243F790005AE0FFEF541FFF7E00C7
:10369000EF25E0FFEE33FEEF2400FFEE3444FEAAF8
:1036A00006A9077B0112443190005DEEF0A3EFF014
:1036B00090005AE0FF7E02EF8EF0A4FFAEF0EF2400
:1036C00000FFEE3444FEAA06A9077B0190005BE0F0
:1036D000FEA3E0FFAD07AC0612444090005DE0FEA3
:1036E000A3E0FF227F287E007D007C001238AB7FA4
:1036F00003123F967F057E007D007C001238AB7F71
:1037000003123F967F0F7E007D007C001238AB7F56
:1037100003123F967F017E007D007C001238AB7F54
:1037200002123F967F057E007D007C001238AB7F41
:10373000061240B77F0E1240B77F2C1240B77F08A9
:103740001240B77F011240B77F0C1240B77F0312BF
:1037500040B77F057E007D007C001238AB224F0110
:10376000B3FF3C0DFF3C12FF3C16FF3C1BFF3C200F
:103770004901C2FF3C26FF3C28FF3C2C4101EC00E4
:103780004E016800C2010000000800C201000000F4
:10379000084A0176A120000000000200000041015B
:1037A00086004101E7004101E6004101D5004401E6
:1037B000D103D090004401CC0000FA004101D04078
:1037C0004401D77D0000004301E10000004101ED0C
:1037D0000000900091EFF0900092E4F0900093745C
:1037E000FFF0900092E0FFEFC39402504C900092E3
:1037F000E0FF74802FF582E43401F583E0FF900050
:1038000094EFF0900094E0FFEF75F00BA424B5F571
:1038100082E43400F583E0FF900091E0FEEFB5060E
:1038200010900092E0FF900093EFF09000927402ED
:10383000F0900092E004F080A9900093E0FF2290C5
:103840000110E0FEA3E0FFEF4E7005124293805896
:103850009001237402F0900122E4F0123F4990603D
:1038600007E0FF7E00EF7F00FE906006E0FD7C0039
:10387000EE4CFEEF4DFF900091EEF0A3EFF09000C4
:1038800091E0FEA3E0FF900110E0FCA3E0FDD3ED8A
:103890009FEC9E4010900091E0FEA3E0FF9001108D
:1038A000EEF0A3EFF01230467F012290FFFC120CE5
:1038B000D7120C5B850D83850E82120C43D3EF94D7
:1038C00000EE9480402F9001D7120C4312400085E7
:1038D0000D83850E82C083C082120C43EF2400FF4B
:1038E000EE3480FEED34FFFDEC34FFFCD082D0835B
:1038F000120C5B80BF9001CC120C43850D83850EAA
:1039000082120C4F120AA8124000900004120CD729
:1039100022900082EFF07B007A007900C003C002A1
:10392000C001900115120C73D082D083D0E06B706F
:1039300008E965827003EA65836037900082E0FFE2
:10394000900115120C73EF120A299000A8E0FEA353
:10395000E0FF900115120C73E92401F9EA3400FA32
:10396000EE8FF0120A7C7B007A007900900115122C
:103970000C7C22C0E0C083C082C085C084C0867534
:103980008600C093759300C0D075D000C006C007F4
:1039900090600B7401F090600EE0FF9000B6E0FFC5
:1039A000EF5403FF7E00EF64014E600E9000B9E01B
:1039B000FFEF6480FF9000B9EFF09000B77401F062
:1039C000D007D006D0D0D093D086D084D085D082F6
:1039D000D083D0E032C0E0C083C082C085C084C044
:1039E00086758600C093759300C0D075D000C00660
:1039F000C00790600B7402F090601EE0FF9000C161
:103A0000E0FFEF5403FF7E00EF64014E600E900074
:103A1000C4E0FFEF6480FF9000C4EFF09000C27438
:103A200001F0D007D006D0D0D093D086D084D085F6
:103A3000D082D083D0E032C0E0C083C082C085C0D5
:103A400084C086758600C093759300C0D075D00081
:103A5000C006C00790600B7404F090602EE0FF90E9
:103A600000CCE0FFEF5403FF7E00EF64014E600ED8
:103A70009000CFE0FFEF6480FF9000CFEFF0900068
:103A8000CD7401F0D007D006D0D0D093D086D084AA
:103A9000D085D082D083D0E0329001237404F0909E
:103AA00001227480F0123F49906007E0FF7E00EF32
:103AB0007F00FE906006E0FD7C00EE4CFEEF4DFFC7
:103AC000900091EEF0A3EFF0900091E0FEA3E0FFF4
:103AD000900110E0FCA3E0FDD3ED9FEC9E40109020
:103AE0000091E0FEA3E0FF900110EEF0A3EFF09054
:103AF00000A7740BF07F012290005AEFF090005B5A
:103B0000EDF090005BE0FFEFD394075003D380010A
:103B1000C340057F001243F790005AE0FFEFD394B3
:103B20001F5003D38001C340057F001243F790006C
:103B30005BE0FFEF5407FF7E00EF75F020A4FFAEBF
:103B4000F090005AE0FEEE541FFE74802EF582E4E1
:103B50003444F583EFF022900057120C7C900186DC
:103B6000E0FF74842FF582E43401F583E0FF9000D8
:103B70005AEFF090005AE0FF900057120C7390003B
:103B80005AE0FEEE75F00BA424B3F582E43400F5A0
:103B900083E0FCA3E0FD900061ECF0A3EDF0122BBC
:103BA000FD90005BEEF0A3EFF090005BE0FEA3E081
:103BB000FF2290005EEFF0905120E0FFEF4420FFE5
:103BC000EFF0905120E0FFEF54BFFFEFF07F007E59
:103BD00000124150905120E0FFEF54F0FFEFF090C1
:103BE0005120C083C082E0FF90005EE0FEEE4410F2
:103BF000FEEF4EFFD082D083EFF07F017E001241B6
:103C000050905120E0FFEF54EFFFEFF0224E6F6E27
:103C100065004F6464004576656E004D61726B000F
:103C20005370616365003100312E3500320042521D
:103C30003A25346C642025642563257300202020F8
:103C40002020202020202020202020202020202074
:103C500020004454523A25732C5254533A25730091
:103C60004F4E004F4646009000A4E4F09000A4E0C0
:103C7000FFEFC39402501A9000A4E0FF74DB2FF50D
:103C800082E43401F5837401F09000A4E004F08034
:103C9000DB900123E4F090011CE4F09000A6E4F036
:103CA000900118E4F090011FE4F09000A5E4F0907A
:103CB0000119E4F09060287403F09060087480F0BB
:103CC00022900065EFF0900065E0FFEFD394004094
:103CD00046900065E0FFEFC39409503B900065E01B
:103CE000FFEF75F00BA424ACF582E43400F583E417
:103CF000F0900065E0FFEF75F00BA424B0F582E4CE
:103D00003400F583E0FF900065E0FE75F010EE9062
:103D10005FFE120C67EFF022900057EFF090005812
:103D2000EDF0900057E0FFEF120CB13D3B003D4835
:103D3000013D55023D620300003D6E900058E0FFDA
:103D4000EF2480FF1240B722900058E0FFEF24C01C
:103D5000FF1240B722900058E0FFEF2494FF12407A
:103D6000B722900058E0FFEF24D4FF1240B722C0E2
:103D7000E0C0F0C083C082C085C084C08675860064
:103D8000C093759300C0D075D000C000C001C002C0
:103D9000C003C004C005C006C007123C67D007D0EE
:103DA00006D005D004D003D002D001D000D0D0D0AE
:103DB00093D086D084D085D082D083D0F0D0E0322A
:103DC000C0E0C0F0C083C082C085C084C086758654
:103DD00000C093759300C0D075D000C000C001C072
:103DE00002C003C004C005C006C00712434AD00782
:103DF000D006D005D004D003D002D001D000D0D05E
:103E0000D093D086D084D085D082D083D0F0D0E03B
:103E100032900057E4F0900123E0FFEF703B9001F7
:103E200086E0FF74872FF582E43401F583E0FFEF2D
:103E30006027900186E0FF74872FF582E43401F556
:103E400083E0FF900057EFF0900186E0FF74872F2A
:103E5000F582E43401F583E4F0900057E0FF22900E
:103E60000057120C7C90005A7401F0900057120C0D
:103E700073120A10FF90005BEFF090005BE0FFEF21
:103E8000602A90005BE0FF124081900057120C7393
:103E900090005AE0FFE92FF9E43AFA120A10FF9075
:103EA000005BEFF090005AE004F080CE229000001A
:103EB000E4F0900000E0FFEFD3941F503D9000002D
:103EC000E0FF7E02EF8EF0A4FFAEF0EF2400FFEEE5
:103ED0003444FEAA06A9077B01C003C002C0017BCF
:103EE000FF7A44797BAC02AD01D001D002D003123D
:103EF0004440900000E004F080B822900082E4F09A
:103F0000906000E0FFEF5480FF7E00EF4E60349041
:103F10006001E0FFEF120CB13F1F0100003F437B47
:103F2000FF7A4579F7900112120C7C9045F7E493E3
:103F3000FF7E00900110EEF0A3EFF012383F9000EA
:103F400082EFF0900082E0FF229000A8E4F0A3E46A
:103F5000F07B007A007900C003C002C00190011517
:103F6000120C73D082D083D0E06B7008E965827048
:103F700003EA6583601F900115120C73E4120A298D
:103F8000900115120C73E92401F9EA3400FAE47582
:103F9000F000120A7C2290005BEFF0905120E0FFCD
:103FA000EF549FFFEFF0905120E0FFEF54F0FFEF50
:103FB000F0905120C083C082E0FF90005BE0FEEEF5
:103FC0004410FEEF4EFFD082D083EFF07F017E00E1
:103FD000124150905120E0FFEF54EFFFEFF022909C
:103FE0000119E0FF7E009000A8EE8FF0120A3B90CE
:103FF0000123E4F07F011239119000A77403F0222D
:10400000EC4D4E700D78FCEF24E950032840FD2262
:10401000000078C5904800E0C40303540390404773
:104020009325E0240FF404FBEF28FF78FFEE38FE21
:10403000ED38FDEC38FC50D7EF2BFFEE38FEED38B5
:10404000FDEC38FC40F222050203047B0C7A017976
:10405000CF124459900000EFF0900000E0FFEF54C1
:1040600007FF90586EEFF0900000E0FFEFC4540F90
:10407000FFEF540FFF90586FEFF09058767444F0B4
:104080002290005CEFF0121DE090005CE0FFEFC4B6
:10409000540FFF90005DEFF090005DE0FF123BB227
:1040A00090005CE0FFEF540FFF90005DEFF0900098
:1040B0005DE0FF123BB222900059EFF0121DE0903C
:1040C0000059E0FFEFC4540FFF90005AEFF090004A
:1040D0005AE0FF123F96900059E0FFEF540FFF9017
:1040E000005AEFF090005AE0FF123F9622758600CA
:1040F000EF4E6027EF60010E759300900005E0F52C
:1041000095A3E0F585A3E0F5848B938A838982E00B
:10411000A30586F0A31586DFF6DEF4E4F593F595A6
:1041200022ACEAADA08E838F82E493F9601CA3E4F5
:1041300093F5EAA3E493F5A0A3E49360F1FAA3E472
:1041400093F8A3E493F2DAF6D9E48DA08CEA223254
:10415000EEFA9001D0E0F88FF0A4FFAEF0E88AF01C
:10416000A42EFEE5F03400FDEF24C9FF78FFEE3801
:10417000FEED38FDE438FC5003024000229001239C
:10418000E0FFEF120CB141A900419602419A0441AF
:104190009E06000041A9123FDF2212310A227F034E
:1041A0001239119000A77403F02290011FE0FFEF75
:1041B000601390011FE0FFEF4480FF906008EFF074
:1041C00090011FE4F0900123E4F07F011239119077
:1041D00000A77403F022900057EFF0900058EDF024
:1041E0009001ECE0FFEF70091226EB9001EC7401F6
:1041F000F0900057E0FF900058E0FD122DD922EF1B
:10420000B40A07740D12420A740A309811A899B8BA
:10421000130CC2983098FDA899C298B811F630993D
:10422000FDC299F59922758600EF4E601BEF600183
:104230000E8C838D828B958A858984E493A3058671
:10424000F0A31586DFF5DEF3E4F59522900123E077
:10425000FFEF120CB1427000426502426904426DE8
:1042600006000042701244772212441E221241AA14
:1042700022900057E4F090011CE0FFEF600F9001E6
:104280001CE0FF900057EFF090011CE4F090005705
:10429000E0FF229001237402F09001227480F090DC
:1042A00000A7740FF0900119E4F09000AAE4F07FE9
:1042B0000122900057EFF0900057E0FFEF75F00BF0
:1042C000A424ACF582E43400F583E0FF22900124BD
:1042D000E0FFEF25E025E024E2F582E43445F583B4
:1042E000120C85AE02AF01229001237406F09000FB
:1042F000A77406F09001227480F09000AAE4F07F89
:104300000122EC4D6011ED60010C8B938A83898250
:10431000E4F0A3DDFCDCFA75930022EF54016004A5
:10432000D2AF8002C2AFEF5402FF9044F4E054FDDC
:104330004FF022900186E0FFEF25E02489F582E42A
:104340003401F583E0FEA3E0FF2290458FE0FFEF0C
:104350005440FF7E00EF7806CEC313CE13D8F9FF8A
:1043600022900186E0FFEF75F007A4246CF582E44B
:104370003401F583E0FF22900186E0FFEF75F0073E
:10438000A4246DF582E43401F583E0FF22900186D8
:10439000E0FFEF75F007A4246EF582E43401F583A5
:1043A000E0FF22900186E0FF74842FF582E434015F
:1043B000F583E0FF1242B222900186E0FF74822F63
:1043C000F582E43401F583E0FF1242B2229001E667
:1043D000E0FFEF70091236E49001E67401F0124438
:1043E0004D229044F4E0F84402F0E85402FF10AF8C
:1043F000012274014FFF2290FFFF120CD7EFF090C3
:1044000046EA7401F0900001120CD722900005EFEB
:10441000F0900005E0FF900005EFF080FE22900193
:1044200023E4F07F011239119000A77403F0228B6E
:10443000938A838982E0FFA3E0FE759300228B9329
:104440008A838982EDF0A3ECF0759300227F0C1231
:1044500040B79001E77401F0228B938A838982E050
:10446000759300FF228B938A838982EDF075930008
:10447000229000A6E0FF221230462280FE32120176
:10448000000202000008B40432F2010001048001BD
:104490000902430002010180320904000001020206
:1044A0000002052400100104240202052406000174
:1044B00005240100010705810308000A0904010021
:1044C000020A0000030705820240000007050302FC
:1044D000400000040309042C0343007900700072BB
:1044E000006500730073002000530065006D0069D3
:1044F0000063006F006E0064007500630074006F5D
:104500000072003803430044004300200043006F62
:10451000006D006D0075006E00690063006100743D
:104520000069006F006E00200049006E0074006595
:1045300000720066006100630065002603430044CA
:104540000043002000440061007400610020004925
:10455000006E007400650072006600610063006513
:104560000010035500530042005500410052005412
:1045700000000203320005010902A1010901A100A6
:10458000050919012903150025019503750181020B
:104590009501750581010501093009311581257FD6
:1045A000750895028106C0C0000000008103000864
:1045B000020100820200400A0100030200400A02D8
:1045C0000A01FF449003FF45AA000000000000001C
:1045D0000000FF45BF01FF447E0000000001FF45D1
:1045E000C101FF45D512034D005300460054003170
:1045F000003000300001002800000000010400012C
:104600000000000000000000014359555342000023
:1046100000303030303100000000000000000005A4
:104620000014014000000000000000C000000F0B5B
:104630000000000000007F7F00000000000C00452B
:10464000017E020052017C40011702EA02EE0A01DB
:104650001902EA02EE0A01400333813640CC7001B0
:1046600041039F01A640A7800142039F01A640A7E6
:10467000800143039F01A640A78001470408080B5F
:10468000040F40C20E014804AE40AF81EA40EE5034
:10469000014C02AC08AF44015101002A0051000056
:1046A0001000513000400051C00010010000100007
:1046B00001140008000140000A00014C0002000142
:1046C00050000020303132333435363738394142EA
:0546D0004344454600D3
:00000001FF
